:020000040800F2
:100000005835002029020008D31F0008B31C00083F
:10001000D11F000817070008612500080000000034
:100020000000000000000000000000009101000836
:100030005107000800000000D50100081D2000083D
:10004000430200084302000843020008430200087C
:100050004302000843020008530700084302000857
:10006000430200084302000843020008430200085C
:10007000430200084302000839070008450700084A
:10008000430200084302000843020008430200083C
:10009000430200084302000843020008430200082C
:1000A000430200084302000843020008430200081C
:1000B00099200008A5200008430200084302000818
:1000C00043020008430200084302000843020008FC
:1000D00043020008552500084302000843020008B7
:1000E00043020008430200084302000800F002F83F
:1000F00000F03FF80AA090E8000C82448344AAF183
:100100000107DA4501D100F034F8AFF2090EBAE880
:100110000F0013F0010F18BFFB1A43F0010318473B
:100120002C4300004C430000103A24BF78C878C12B
:10013000FAD8520724BF30C830C144BF04680C60ED
:10014000704700000023002400250026103A28BF35
:1001500078C1FBD8520728BF30C148BF0B60704739
:10016000752900F09D80002070471FB51FBD10B598
:1001700010BD00F096FA1146FFF7F7FF02F001FA02
:1001800000F0B4FA03B4FFF7F2FF03BC00F0BCFACE
:10019000224B19680868B0E8F00F80F30988BFF3B4
:1001A0006F8F4FF0000080F311884EF00D0E7047F6
:1001B0000000000006480068006880F3088862B606
:1001C00061B6BFF34F8FBFF36F8F00DF00BF00BF7B
:1001D00008ED00E0EFF30980BFF36F8F0F4B1A6853
:1001E00020E9F00F106008B54FF0500080F311883F
:1001F000BFF34F8FBFF36F8F03F054FA4FF000003F
:1002000080F31188BDE8084019680868B0E8F00F6D
:1002100080F30988BFF36F8F704700BF4400002050
:10022000EFF3058070470000094880470948004700
:10023000FEE7FEE7FEE7FEE7FEE7FEE7FEE7FEE796
:10024000FEE7FEE704480549054A064B70470000F3
:1002500095200008ED000008582F00205835002098
:1002600058310020583100200FB47CB50C0009AA89
:10027000009001D02044401E084B7B446946019009
:10028000089800F09AF905461CB10020694600F074
:10029000A7F928467CBC5DF814FB00006D03000044
:1002A0002DE9F0410646002410687529314616A54F
:1002B00010D0AFF30080002802DA404213A507E017
:1002C00031688A0701D512A502E0490704D511A5B6
:1002D000012401E0AFF3008000210A2206F1240787
:1002E00009E0B0FBF2FCB0FBF2F302FB1C00303083
:1002F00078541846491C0028F3D123462A46304634
:10030000BDE8F04100F0FAB8000000002D00000048
:100310002B000000200000002DE9F0410F460546AB
:10032000002028622846E968884770B3252805D050
:10033000D5E901219047286A401CF2E7E968284680
:10034000002688476C2804460AD0682C08D04C2C1C
:1003500035D06A2C31D0742C31D07A2C2FD016E0C5
:10036000E968064628468847B042044608D16C2E04
:1003700023D04FF480662846E9688847044606E0A3
:100380006C2E03D04FF4807601E01EE04026E4B1ED
:10039000A4F14100192802D8203446F400663A46F8
:1003A000214628462E60FFF7DBFE60B1012808D009
:1003B000FF1D27F007070837B4E78026DBE7002694
:1003C000D9E73F1DAEE72046B2E7286ABDE8F081D5
:1003D00010B5431C02E010F8011B71B18107FAD17E
:1003E0004FF0013202C88C1A8C4314EAC211F9D0C2
:1003F000C01A0A0603D0C01E10BDC01A10BD0A04E0
:1004000001D0801E10BD0902FCD0401E10BD032A81
:1004100040F2308010F0030C00F0158011F8013B21
:10042000BCF1020F624498BF11F801CB00F8013B08
:1004300038BF11F8013BA2F1040298BF00F801CBCC
:1004400038BF00F8013B11F0030300F0D680083AF2
:10045000C0F0088051F8043B083A51F804CBA0E8FA
:100460000810F5E7121D5CBF51F8043B40F8043B4F
:10047000AFF30080D20724BF11F8013B11F801CB84
:1004800048BF11F8012B24BF00F8013B00F801CB55
:1004900048BF00F8012B704702F0FF0343EA032234
:1004A00042EA024200F0DDB84FF0000200B5134608
:1004B00094469646203922BFA0E80C50A0E80C5084
:1004C000B1F12001BFF4F7AF090728BFA0E80C5035
:1004D00048BF0CC05DF804EB890028BF40F8042B2E
:1004E00008BF704748BF20F8022B11F0804F18BF9B
:1004F00000F8012B70477047704770472DE9F047AF
:100500000D4699469246044600F124080168880683
:1005100004D5E06921F01001216000E00120A8422B
:1005200001DD471B00E00027A1697A1902EB0900F1
:10053000081AA0612078C00602D42046AFF30080DC
:10054000002608E0D4E901211AF806009047206A45
:10055000401C761C20624E45F4DB2078C0060AD58C
:100560002046AFF3008006E0D4E901213020904717
:10057000206A401C2062381EA7F10107F4DC07E066
:10058000D4E9012118F805009047206A401C206238
:10059000281EA5F10105F3DC2046AFF3008020788A
:1005A000000602D50220BDE8F0870120FBE700002D
:1005B00001694A1C02610878704700B58FB0CDE927
:1005C00001310021059105497944CDE90310114617
:1005D0006846FFF7A1FE0FB000BD0000E5FFFFFF7A
:1005E0000A6802F8010B0A607047D1E900239A42B9
:1005F00002D2531C0B601070704710B5203AC0F047
:100600000B80B1E81850203AA0E81850B1E8185013
:10061000A0E81850BFF4F5AF5FEA027C24BFB1E850
:100620001850A0E8185044BF18C918C0BDE81040C1
:100630005FEA827C24BF51F8043B40F8043B08BFCA
:100640007047D20728BF31F8023B48BF11F8012B91
:1006500028BF20F8023B48BF00F8012B70474FF03D
:1006600000020429C0F0128010F0030C3FF41EAF0A
:10067000CCF1040CBCF1020F18BF00F8012BA8BF8D
:1006800020F8022BA1EB0C01FFF710BF5FEAC17C41
:1006900024BF00F8012B00F8012B48BF00F8012B04
:1006A0007047754600F02CF8AE4605006946534683
:1006B00020F00700854618B020B5FFF7C3FDBDE860
:1006C00020404FF000064FF000074FF000084FF0B9
:1006D000000B21F00701AC46ACE8C009ACE8C0094A
:1006E000ACE8C009ACE8C0098D46704710B50446B7
:1006F000AFF300802046BDE81040FFF743BD000087
:1007000000487047F82E002001491820ABBEFEE7D4
:10071000260002007047FEE710B50446FFF758FEBA
:10072000214682B2BDE810404FF47A73014801F0CF
:100730006FBA00000C010020014800F07FB80000F3
:1007400098010020014800F079B800005401002011
:100750007047012000F076B972B6FEE710B590F848
:1007600021100022022905D00421816380F8202075
:10077000012010BD01680B6823F00E030B600168B7
:100780000B6823F001030B6090F84030C46B01212B
:1007900001FA03F3636080F8211080F820201046EE
:1007A00010BD000010B590F821100024022903D0DC
:1007B0000421816301243DE001680A6822F00E02F1
:1007C0000A6001680A6822F001020A601A4A016898
:1007D000914201D1012121E0174A1432914201D105
:1007E00010211BE0144A2832914201D1891515E0ED
:1007F000114A3C32914201D189140FE00E4A503225
:10080000914202D14FF4803108E00B4A64329142A8
:1008100002D14FF4801101E04FF08071064A083A8E
:100820005160012180F82110002180F82010416BD7
:1008300001B18847204610BD080002402DE9F05F55
:10084000C16B0C6801680B68D0F840C0042202FA42
:100850000CF2494DDFF824A1494E4A4FDFF828B188
:10086000DFF828E122422CD05A072AD50A689206DE
:1008700003D40A6822F004020A600168A94201D187
:10088000042219E0514501D1402215E0B14202D1C4
:100890004FF4806210E0B94202D14FF480420BE085
:1008A000594502D14FF4802206E0714502D14FF440
:1008B000800201E04FF080622F4908394A60C16A26
:1008C0003BE04FF0020808FA0CF818EA040F4FF06A
:1008D00000094FF0010235D05FEA837832D50B680A
:1008E0009B0605D40B6823F00A030B6080F82120D7
:1008F0000168A94201D1022219E0514501D120220B
:1009000015E0B14202D14FF4007210E0B94202D1B9
:100910004FF400520BE0594502D14FF4003206E08B
:10092000714502D14FF4001201E04FF000721249FC
:1009300008394A6080F82090816A00291AD0BDE801
:10094000F05F0847082505FA0CF5254212D01B0771
:1009500010D50B6823F00E030B6090F84010C36BAA
:1009600002FA01F15960826380F8212080F820901A
:10097000016BE2E7BDE8F09F080002401C00024066
:100980003000024044000240580002406C00024027
:1009900030B528B308C8134914221944B1FBF2F149
:1009A0008900C16310498163022141771A6843F6C7
:1009B000F0718A43D0E900142143D0E902452C4369
:1009C000214304692143446921438469214311433C
:1009D000196000214163012242770177084630BD4A
:1009E000012030BDF8FFFDBF0000024008B5002126
:1009F0000091012813D10A486A460221C06902F019
:100A0000EDFE08A0FFF788FE0098002807D00C49EB
:100A10004FF080500860BFF34F8FBFF36F8F08BD5A
:100A2000000000204B657920496E74657272757004
:100A30007420547269676765726564210D0A00004D
:100A400004ED00E0044910B50A68024202D00860D3
:100A5000FFF7CCFF10BD0000140401402DE9F84F52
:100A6000DFF8B8910024A9F1040B23460F2709F100
:100A7000040AABF1040EC9E00125A5402A40AA42B0
:100A80007DD1674ED1F804C0ACEB0608B44532D036
:100A900014DCBCF1030F3AD009DCBCF1000F2AD002
:100AA000BCF1010F1CD0BCF1020F31D11DE0BCF133
:100AB000110F17D0BCF1120F2AD119E0B8F5881F19
:100AC00019D006DCB8F5803F15D0B8F5801F1FD1CE
:100AD00011E0B8F5001F0ED0B8F5041F18D10AE0D8
:100AE000CB6815E0CB681B1D12E0CB6808330FE024
:100AF000CB680C330CE08B682BB1012B4FF0080353
:100B000003D0456104E0042302E0056100E0002316
:100B1000FF2A01D8064601E000F104064FEA8405E9
:100B200001D9A5F12005D6F8008007FA05FC28EACE
:100B30000C0803FA05F548EA0508C6F800804D6878
:100B4000ED0062D5374DAE6946F00106AE61AD6984
:100B500024F0030605F001050095334D06EB050C66
:100B6000DCF80850A607360F07FA06F825EA08054C
:100B7000DFF8B880404503D14FF0000817E044E0AB
:100B8000DFF8AC80404502D14FF001080FE0DFF8FC
:100B9000A480404502D14FF0020808E0DFF89880B9
:100BA000404502D14FF0030801E04FF0040808FA75
:100BB00006F848EA0508CCF808804D68D9F80060C6
:100BC000ED024D4601D5164300E096432E604D6878
:100BD000DAF80060AD02554601D5164300E09643B1
:100BE0002E604D68DBF80060AD035D4601D516430D
:100BF00000E096432E604D68DEF80060ED03754618
:100C000001D5164300E096432E60641C0D682A4609
:100C1000E5407FF431AFBDE8F88F000008040140E3
:100C200000001110001002400000014000080140C7
:100C3000000C014000100140001401400AB10161A4
:100C400070470904FBE70000014880687047000016
:100C500034000020074810B5016841F01001016020
:100C6000032000F0A7F80F2000F006F800F050F87D
:100C7000002010BD0020024030B50546204887B056
:100C8000C16941F00101C161C06906A900F001001C
:100C9000009001A800F036F90498B8B100F052F9BC
:100CA000400018494FF08042B0FBF1F11648491E50
:100CB0000260416040F2E7320021C0E90321816017
:100CC000816100F04BFB040003D015E000F03AF91D
:100CD000E7E70D4800F08EFB04000DD11C2000F06A
:100CE0003BF8102D07D2002229461C2000F042F8C4
:100CF0000648056000E0012407B0204630BD000032
:100D00000010024040420F00DC01002038000020AB
:100D10000F4808B5816941F001018161816901F0E5
:100D200001010091C16941F08051C161C069002297
:100D300000F0805000900F21901E00F01BF8054835
:100D4000416821F0E06141F00071416008BD0000A0
:100D50000010024000000140002809DB00F01F02E3
:100D6000012191404009800000F1E020C0F800110D
:100D700070470000F0B40E4B1B680C46C3F302230F
:100D8000C3F10705042D00D90425191D072901D237
:100D9000002300E0DB1E012606FA05F1491E214072
:100DA00099409E40761E16403143F0BC01F0D9BBFD
:100DB0000CED00E0064900F0070208684FF6FF035B
:100DC000184040EA0220034A1043086070470000C0
:100DD0000CED00E00000FA052DE9F0470F46050094
:100DE00061D0434E306800F00700B84209D2306845
:100DF00020F0070038433060306800F00700B84248
:100E000051D128683B4C810712D5400703D5606853
:100E100040F4E06060602878000703D5606840F423
:100E2000605060606068A96820F0F000084360606E
:100E30002878C00728D06868012810D021680228C7
:100E400010D0890700292EDA616821F003010143DF
:100E50006160FFF7F9FE804641F288390DE02168B4
:100E60008903EFE78901EDE7FFF7EEFEA0EB08014C
:100E7000494502D90320BDE8F0876068696800F041
:100E80000C00B0EB810FEFD1306800F00700B842E2
:100E90000BD9306820F0070038433060306800F02C
:100EA0000700B84201D00120E5E72878400705D5C2
:100EB0006068E96820F4E060084360602878000713
:100EC00006D56068296920F4605040EAC10060607E
:100ED00000F058F86168084AC1F30311515CC8403A
:100EE0000649086006480068FFF7C6FE0020C2E712
:100EF0000020024000100240CE43000840000020C5
:100F0000380000200F2202600C4A536803F00303EC
:100F10004360536803F0F0038360536803F4E063B5
:100F2000C36052684FF4E06303EAD20202610448EE
:100F3000006800F0070008607047000000100240E1
:100F4000002002400448054900684968044AC1F38A
:100F50000221515CC8407047400000200010024050
:100F6000DE4300080448054900684968044AC1F3A3
:100F7000C221515CC8407047400000200010024070
:100F8000DE4300080E4A51680E4801F00C03042BA2
:100F900011D0082B0FD10C48C1F38343C903C05CA7
:100FA0000AD55168084AC1F34041921E515C054A76
:100FB0005043B0FBF1F070470449484370470000CC
:100FC0000010024000127A00BE43000800093D00F4
:100FD0002DE9F84F040070D02078C04DC00749D0EB
:100FE0006868C0F38100012807D06868C0F38100F9
:100FF000022809D16868C00306D52868800339D55E
:1010000060680028E7D035E06068B0F5803F0BD01D
:1010100010B1B0F5A02F11D0286820F480302860DE
:10102000286820F4802002E0286840F4803028609E
:10103000606890B1FFF708FE06460AE0286840F4B1
:1010400080202860F0E700BFFFF7FEFD801B6428CA
:1010500073D828688003F7D50CE0FFF7F5FD064646
:1010600005E000BFFFF7F0FD801B6428F0D828687A
:101070008003F7D420789A4E80074FF001094FF093
:10108000000839D5686810F00C0F07D06868C0F305
:101090008100022809D16868C00306D42868800747
:1010A00014D52069012808D110E02069B0B1C6F834
:1010B0000090FFF7C9FD074605E00AE1FFF7C4FD10
:1010C000C01B0228C4D828688007F7D52868616942
:1010D00020F0F80040EAC10028600DE0C6F800806A
:1010E000FFF7B2FD074604E0FFF7AEFDC01B022884
:1010F00023D828688007F7D4207800072CD57948B2
:10110000A169D9B1C0F80090FFF79EFD074604E041
:10111000FFF79AFDC01B02280FD8686A8007F7D531
:1011200071484FF4FA510068B0FBF1F0009000BF35
:101130000098411E0091FAD20EE080E0C0F80080D5
:10114000FFF782FD074604E0FFF77EFDC01B022883
:1011500075D8686A8007F7D42078400760D5E869B9
:101160000027C00008D4E86940F08050E861E869D1
:10117000012700F0805000905C480168C90513D435
:101180000168834641F480710160FFF75DFD82468E
:1011900006E000BFFFF758FDA0EB0A0064284ED818
:1011A000DBF80000C005F5D5E06801280AD008B1D9
:1011B000052813D0286A20F001002862286A20F050
:1011C000040002E0286A40F001002862E06841F271
:1011D000883B98B1FFF738FD82460BE0286A40F063
:1011E00004002862EEE700BFFFF72EFDA0EB0A0126
:1011F00059455AD8286A8007F6D50CE0FFF724FD38
:10120000824605E0FFF720FDA0EB0A0159454CD8C6
:10121000286A8007F6D41FB1E86920F08050E861A1
:10122000E06988B36968C1F38101022944D00228CA
:10123000C6F8608004D0FFF707FD044638E034E0CC
:10124000FFF702FD074604E0FFF7FEFCC01B022883
:101250002BD828688001F7D4206AB0F5803F05D1EB
:101260006868A16820F4003008436860D4E9080188
:101270000843696821F4741108436860C6F86090F7
:10128000FFF7E2FC044606E025E000BFFFF7DCFCC8
:10129000001B022809D828688001F7D51BE000BF91
:1012A000FFF7D2FC001B022802D90320BDE8F88F0B
:1012B00028688001F4D40EE00128F7D06868226A1B
:1012C00000F48031914204D1616A00F470108842C8
:1012D00001D00120EAE70020E8E70000001002400A
:1012E0000000424280044242400000200070004062
:1012F0007047704770B590F83C20012A26D0012431
:1013000080F83C40022280F83D2003685A689D68BE
:1013100022F070060A6832435A600D4B02689A4206
:1013200008D0B2F1804F05D00A4B9A4202D00A4B46
:101330009A4204D1496825F080031943916080F8EE
:101340003D40002180F83C10084670BD022070BD71
:10135000002C0140000400400008004010B50400CB
:1013600003D094F83D0010B107E0012010BD00202B
:1013700084F83C00204600F01FF8022084F83D006D
:10138000211D206800F094FE012084F8460084F8B6
:101390003E0084F83F0084F8400084F8410084F85F
:1013A000420084F8430084F8440084F8450084F83F
:1013B0003D00002010BD000008B500680B498842C0
:1013C00012D10B48C16941F00201C161C06900221C
:1013D00000F00200009005211D20FFF7CBFCBDE8C6
:1013E00008401D20FFF7B8BC08BD00000004004005
:1013F0000010024090F83D10012901D001207047F3
:10140000022180F83D100168CA6842F00102CA60FA
:1014100000680B49884208D0B0F1804F05D00949D7
:10142000884202D00849884204D1816801F007014E
:10143000062903D0016841F00101016000207047D6
:10144000002C0140000400400008004070B5044634
:1014500090F83C000025012817D0012684F83C6054
:10146000022084F83D002068826822F0770222F48E
:101470007F4282600868502838D00DDC20284FD089
:1014800005DC90B3102811D14AE0022070BD30284D
:1014900046D040280AD13BE060282FD070280DD0DC
:1014A000B0F5805F03D0B0F5005F12D0012584F85D
:1014B0003D60002084F83C00284670BDCB68D1E92F
:1014C0000121206800F030FE2068816841F077013A
:1014D00009E0CB68D1E90121206800F025FE2068F1
:1014E000816841F480418160E1E719E0CA68496898
:1014F000206800F0CDFE5021206806E0CA684968E7
:10150000206800F0D6FE6021206800F017FECEE7CC
:10151000CA684968206800F0BBFE40212068F4E7F3
:10152000226801461046F0E770472DE9F041044675
:101530000068C66805694FF00007A90713D5B10711
:1015400011D5F91E0161012020772068806980078C
:10155000204602D0FFF7E8FF04E000F0A5F820469F
:1015600000F037F92777680716D5700714D521687A
:101570006FF004000861022020772068806910F471
:10158000407F204602D0FFF7CFFF04E000F08CF848
:10159000204600F01EF92777280715D5300713D508
:1015A00021686FF008000861042020772068C06976
:1015B0008007204602D0FFF7B7FF04E000F074F880
:1015C000204600F006F92777E80616D5F00614D570
:1015D00021686FF010000861082020772068C0693A
:1015E00010F4407F204602D0FFF79EFF04E000F099
:1015F0005BF8204600F0EDF82777E80708D0F00701
:1016000006D021686FF001000861204600F0E2F882
:10161000280608D5300606D521686FF080000861DD
:101620002046FFF765FE680608D5700606D52168D6
:101630006FF040000861204600F0ECF8A8060AD5DB
:10164000B00608D521686FF0200008612046BDE88B
:10165000F041FFF74EBEBDE8F081000000B585B057
:101660000021009101910291039100680B49884289
:1016700011D10B48816941F004018161806969469B
:1016800000F004000490402000900220019003909C
:101690000448FFF7E3F905B000BD00000004004076
:1016A0000010024000080140704770B5044690F8F1
:1016B0003C0000260D4601280FD0012084F83C0094
:1016C0006AB1042A1DD0082A2FD00C2A3FD0012647
:1016D000002084F83C00304670BD022070BD2068B8
:1016E00000F034FD2068816941F0080181612068C3
:1016F000816921F004018161206881692A691143AF
:1017000011E0206800F04AFD2068816941F4006121
:1017100081612068816921F480618161206881692B
:101720002A6941EA02218161D2E7206800F062FD66
:101730002068C16941F00801C1612068C16921F0D8
:101740000401C1612068C1692A69114311E0206860
:1017500000F07CFD2068C16941F40061C16120682E
:10176000C16921F48061C1612068C1692A6941EAC7
:101770000221C161ACE710B5040003D094F83D002C
:1017800010B107E0012010BD002084F83C00204685
:1017900000F01EF8022084F83D00211D206800F0B2
:1017A00087FC012084F8460084F83E0084F83F005E
:1017B00084F8400084F8410084F8420084F8430033
:1017C00084F8440084F8450084F83D00002010BDF2
:1017D0007047704708B50021009100680A498842A7
:1017E00010D10A486A460121C06901F0F7FF00984C
:1017F000002807D006494FF080500860BFF34F8F94
:10180000BFF36F8F08BD00000004004000000020FF
:1018100004ED00E07047704770470000F8B50168BC
:1018200004460868CA684B6910F00F0F4FF00005B6
:1018300059D003F0010602F49077374365D0C10711
:1018400005D0D10503D5616C41F001016164410708
:1018500005D5D90703D0616C41F0020161648107AD
:1018600005D5D90703D0616C41F00401616401071B
:1018700007D502F02001314303D0616C41F008012B
:101880006164616C00293AD0800604D5900602D5C7
:10189000204600F067FD20684069616CC0F380104D
:1018A000090700D460B3204600F029FD2068406994
:1018B000400621D52068143050E8001F21F0400177
:1018C00040E80012002AF5D1E06BA8B16D494163F0
:1018D000E06BFEF767FF002811D0E06B416B01B0B1
:1018E000BDE8F040084783060FD593060DD5204686
:1018F000BDE8F84000F036BD2046FFF78DFFF8BD8B
:101900002046FFF789FF6564F8BD266B2023012E72
:101910007CD1C6067AD5D60678D508684868009086
:1019200048694FF00206400640D5E16B0868406800
:101930000004000CE8D0A28D8242E5D9E0858869D8
:1019400020282DD020680C3050E8001F21F4807131
:1019500040E80012002AF5D12068143050E8001F3A
:1019600021F0010140E80012002AF5D1206814306E
:1019700050E8001F21F0400140E80012002AF5D194
:1019800084F84230256320680C3050E8001F21F0B5
:10199000100140E80012002AF5D1E06BFEF7DEFEF0
:1019A0006663A08DE18D401A81B22AE0A08DE18DA1
:1019B000401A81B2E08D0028A6D00029A4D0226868
:1019C0000C3252E8000F20F4907042E80007002F1C
:1019D000F5D12068143050E8002F22F0010240E8D1
:1019E0000027002FF5D184F84230256320680C30A1
:1019F00050E8002F22F0100240E80023002BF5D120
:101A000066632046FFF707FFF8BDFFE705062BD505
:101A1000150629D594F841002128F5D1A068B0F524
:101A2000805F01D12069B0B1206A411C2162216828
:101A300000784860E08C401E0004000CE084E3D194
:101A40002068C16821F08001C1602068C16841F050
:101A50004001C160D8E7206A0088C0F308004860F0
:101A6000206A801C2062E5E74006CDD55006CBD524
:101A7000CA68204622F04002CA6084F8413000F073
:101A800017F9C1E7EF22000870B5040004D094F8FC
:101A90004100002510B106E0012070BD84F84050DF
:101AA000204600F023F8242084F841002068C16813
:101AB00021F40051C160204600F0B6FC20680169A5
:101AC00021F4904101612068416921F02A014161BE
:101AD0002068C16841F40051C1606564202084F829
:101AE000410084F842006563002070BD2DE9F0419B
:101AF00086B0002406460094019402940394006882
:101B00002E49884257D12E48816941F48041816134
:101B1000816901F480410491816941F0040181618E
:101B20008069284D00F0040004904FF4007000908C
:101B3000022001900320039069462846FEF78EFF9D
:101B40002815CDE90004694628460294FEF786FF71
:101B50001E4D1D484FF08008C5E90004C5E9024844
:101B60002C6187146C61C5E906472846FEF710FF13
:101B700008B1FEF7F1FDF5636E62144D124844356D
:101B8000143801C51020A5E81101104845F8104986
:101B900044306C61C5E90647FEF7FAFE08B1FEF76E
:101BA000DBFDB5630022052125206E62FFF7E2F818
:101BB0002520FFF7D1F806B0BDE8F08100380140DC
:101BC000001002400008014058000240540100206B
:101BD00008B50021009100680A49884210D10A48DE
:101BE0006A460421C06901F0F9FD0098002807D079
:101BF00006494FF080500860BFF34F8FBFF36F8FDF
:101C000008BD0000003801400000002004ED00E0A5
:101C10002DE9F843044690F84100984616460D46D3
:101C2000202802D00220BDE8F88385B17EB10020D3
:101C30006064212084F84100FFF706F8A6848146FD
:101C4000E684A0682027B0F5805F02D003E0012081
:101C5000E9E7206910B12E4600250EE000260CE0D1
:101C60008021204600F03CFCA8B9C6B116F8010B53
:101C700021684860E08C401EE084E08C4B464FF0C9
:101C80000002CDF800800028EAD14FF04001204644
:101C900000F026FC40B184F841700320C3E735F81A
:101CA000020BC0F30800E3E784F841700020BAE7B4
:101CB0007047FEE7104A30B4134654790F481B7939
:101CC0004FF400513CB15B1CDBB21371642B07D3A2
:101CD0000023537104E05B1E13F0FF03137104D063
:101CE0001279322A03D9002202E001235371012222
:101CF00030BCFEF7A3BF0000000000200010014030
:101D00000D4808B5416941F0010141614069002277
:101D100000F00100009005210E20FFF72BF80E20A7
:101D2000FFF71AF8002205210F20FFF723F8BDE87E
:101D300008400F20FFF710B80010024010B500F067
:101D400005FB234800F0B4FC224C214A012120620B
:101D5000203A084600F0E0FC1D4BA0612033002231
:101D600001211D4800F06AFDA06220B91BA0FEF70A
:101D7000D3FCFEF7F1FC164B002210330121204862
:101D800000F05CFD606220B91EA0FEF7C5FCFEF706
:101D9000E3FC4FF4FA71606A00F08CFD4FF47A7145
:101DA000A06A00F087FD0A4A0121383A042000F0B9
:101DB00053FC074A6061303200211A4800F0F8FCF9
:101DC000E0620348103800F0FCFBE06110BD000049
:101DD0005843000800000020B51C00084C45442072
:101DE0004272656174682054696D65722063726522
:101DF0006174696F6E206661696C6564210D0A000B
:101E0000D51F00085072696E742054696D65722088
:101E10006372656174696F6E206661696C656421C7
:101E20000D0A0000152000082DE9F04385B00025BB
:101E30002C480095019502950395816941F01001A8
:101E40008161816901F010010491816941F02001F3
:101E50008161816901F020010491816941F00401EF
:101E60008161816901F004010491816941F00801F7
:101E700081618069012200F00800DFF86C80540362
:101E8000049021464046FEF7D9FE0122DFF85C901F
:101E9000170339464846FEF7D1FE009401AA0124F3
:101EA000022682E8700069464046FEF7D7FD1048DA
:101EB0006946CDE900400F480294FEF7CFFD01AA24
:101EC000009782E8700069464846FEF7C7FD002289
:101ED00005210620FEF74EFF0620FEF73DFF05B068
:101EE000BDE8F0830010024000100140000C0140EA
:101EF000000021100008014010B58EB000240794A6
:101F0000089409940A940B941C2168460C94FEF7DB
:101F1000CBFA20481E49016041F61F41C0E9011477
:101F20006321C0E903148461FFF718FA08B1FEF7D2
:101F300013FC4FF48050079007A91648FFF786FA64
:101F400008B1FEF709FC1348FFF715FC08B1FEF7CE
:101F500003FC0B940BA90F480C94FFF7CBF908B1C5
:101F6000FEF7FAFB6020CDE90004029400226946E6
:101F700008480494FFF799FB08B1FEF7EDFB05480C
:101F8000FFF738FA0348FFF769FB0EB010BD0000F9
:101F900000040040C40000200C4810B50A4901604C
:101FA0004FF4E1314160002181600C22C160C0E941
:101FB00004128161C161FFF767FD002803D0BDE80D
:101FC0001040FEF7C9BB10BD003801400C010020D5
:101FD000FEE7FEE700B591B000F009FB034605A25D
:101FE00040216846FEF740F96846FEF795FB11B0C0
:101FF00000BD000053797374656D2072756E6E6953
:102000006E672074696D653A20256C75206D730DBF
:102010000A000000012000F0C7FAFBE710B54FF0FE
:10202000E020006901F078FF012803D0BDE81040EE
:1020300001F030BC10BD30B58FB028216846FEF7E6
:1020400033FA14210AA8FEF72FFA01210804CDE97A
:1020500000100024029402250491CDE907504FF4AA
:10206000E01009906846FEF7B3FF08B172B6FEE7CC
:102070000F20CDE90A054FF48060CDE90C40022124
:102080000AA80E94FEF7A8FE002801D072B6FEE75B
:102090000FB030BD704700000148FFF746BA00009E
:1020A000DC0100200148FFF740BA0000C400002016
:1020B000F0B50268194B1A4C1A4D4FF08047984200
:1020C00005D0B84203D0A04201D0A84203D122F0EB
:1020D00070064A683243984205D0B84203D0A04205
:1020E00001D0A84203D122F44074CA6822434C694B
:1020F00022F08002224302608A68C2620A68826219
:10210000984201D109690163012141610169C9074F
:1021100003D0016921F001010161F0BD002C0140F3
:10212000000400400008004010B5846842EA032221
:1021300024F47F440A432243826010BD826822F067
:1021400070020A4342F007018160704730B5036AAC
:10215000026A22F0010202624268846924F0730577
:102160000C682C4323F002058B682B430A4DA842D0
:102170000BD123F00805CB6822F440722B434D6944
:1021800023F0040315438A692A4342608461496845
:102190004163036230BD0000002C014030B5026A8B
:1021A000036A23F010030362436884690D6824F412
:1021B000E64444EA05248D6822F0200242EA051232
:1021C0000B4DA8420ED1CD6822F0800242EA0512E2
:1021D0004D6923F4406343EA85038D6922F0400290
:1021E00043EA85034360846149688163026230BDCC
:1021F000002C014030B5036A026A22F48072026248
:102200004268C46923F4007324F073050C682C43FE
:102210008D6843EA05230C4DA8420ED1CD6823F406
:10222000006343EA05234D6922F4405242EA051255
:102230008D6923F4806342EA05124260C4614968F3
:10224000C163036230BD0000002C014030B5046A58
:10225000026A22F4805202624268C3690D6823F464
:10226000E64343EA05238D6824F4005444EA053428
:10227000064DA84204D14D6922F4804242EA8512FB
:102280004260C36149680164046230BD002C0140B2
:1022900010B5036A046A24F001040462846924F01E
:1022A000F00444EA021423F00A020A438461026241
:1022B00010BD10B5036A046A24F010040462846936
:1022C00023F0A00324F4704444EA023243EA0111EB
:1022D0008261016210BD10B500F072FF002805D0C8
:1022E000D0E90021BDE810400846104710BD10B5E8
:1022F000406A0021C185C184FFF78EFA10BD0168D4
:102300000C3151E8002F22F4907241E80023002B99
:10231000F5D10168143151E8002F22F0010241E8A3
:102320000023002BF5D1016B012909D101680C3183
:1023300051E8002F22F0100241E80023002BF5D1D4
:10234000202180F8421000210163704710B5034836
:1023500000F0AEF90249086010BD0000AC4300086F
:102360003000002008B590F84210222901D0022048
:1023700008BD82684FF480539A4201D1016921B1AE
:10238000816A9A421BD04AB10AE00268816A5268A7
:10239000C2F308020A80816A891C08E0026972B1EE
:1023A0000268526802F07F020A70816A491C8162E9
:1023B000C18D491E0904090CC18503D01BE00268C8
:1023C0005268F1E70168CA6822F02002CA60016819
:1023D000CA6822F48072CA6001684A6922F0010268
:1023E0004A61202180F8421000214163026B012ADA
:1023F00003D0FFF7EDFB002008BD016301680C313D
:1024000051E8002F22F0100241E80023002BF5D103
:1024100001680A68D20602D50A6849680091818D70
:10242000FFF7F9F9E7E7000070B5044600680169B5
:10243000E26821F44051114301612169A068084319
:10244000616908432168CA6841F20C639A430243F8
:10245000CA6020684169A26921F440711143416159
:102460001E492068884202D1FEF77CFD01E0FEF79C
:1024700069FD00EBC00101EB00126068642180007F
:10248000B2FBF0F3B3FBF1F36FF018067343B2FB4A
:10249000F0F5B2FBF0F605EB8305322303EB0515EF
:1024A000B5FBF1F5B6FBF1F605F0F00505EB061509
:1024B000B2FBF0F6B2FBF0F0B0FBF1F06FF01802F7
:1024C000504306EB800003EB0010B0FBF1F02168F5
:1024D00000F00F002844886070BD00000038014003
:1024E0002DE9F843984617460D460446089E24E019
:1024F000701C22D0FEF7A8FBA0EB0800B0421AD84F
:10250000CEB12068C168490717D5802D15D0402D60
:1025100013D00168C94309070FD40168002540683A
:1025200000902046FFF7EBFE0820606484F84050DE
:102530000120BDE8F8830320FBE72068006835EA46
:10254000000004D00020B842D2D00020F1E70120E2
:10255000F9E700000148FFF761B900000C01002015
:10256000FEE70907090E002804DB00F1E02080F8EF
:102570000014704700F00F0000F1E02080F8141DF7
:102580007047FEF767FBFFF756FDFFF74DFCFFF7BF
:10259000B7FBFFF701FDFFF7AFFC00F02FF8FFF7E7
:1025A000CDFB00F03DF8FEE710B5EFF3058111B16A
:1025B0006FF0050403E0002408B100F087FF204617
:1025C00010BD10B54FF00001EFF305826AB948B1B4
:1025D000D0E902202AB1202807D3104601F0A2F842
:1025E00002E010B901F090F80146084610BDEFF383
:1025F000058008B101F0A4BC01F09CBCEFF305809C
:1026000010B16FF0050070470448016811B14FF038
:10261000FF307047012101600020704794000020C6
:1026200010B5EFF3058010B16FF0050010BD08483C
:102630000168012902D04FF0FF3010BD054A00218A
:1026400082F8141D0221016000F0E0FF002010BD9F
:10265000940000200BE000E0F8B514464FF00005B0
:10266000EFF3058212BB08B301B3A4B1D4E902327F
:1026700063B1502A1AD32269C2B1676900FB01F61F
:10268000B74213D3009501F091F907E072B92269BE
:1026900062B9626952B9002201F067F9050005D0FC
:1026A0000CB1216800E0002100F0AEFE2846F8BD24
:1026B00070B505464FF00004EFF3058050BB0DB137
:1026C000686800E00020C10701D0012600E0002674
:1026D00000071FD46DB1D5E9021021B1502819D3DC
:1026E0001EB1042002E020B114E0012001F030F915
:1026F00005E00EB1042000E0012001F01EF9040005
:1027000008D00DB1296800E0002100F07DFE0EB177
:1027100044F00104204670BDF8B5144603460E4649
:102720004FF00005EFF3058098BB93B39E423DD870
:102730004CB1A0680028E06803D0502836D30120AF
:1027400002E008B132E00020012B05D010B318469A
:10275000A26801F0D2F820E040B1032000900022EE
:1027600011460120A36801F021F904E003220021B1
:10277000012001F0FAF8050018D086B100231A46AE
:10278000194601F08BF9012809D0284600F050FEC7
:1027900000250BE0184601F093F8050006D00CB1B7
:1027A000216800E00021284600F02EFE2846F8BDF2
:1027B0002DE9FF414FEA01034FF00005EFF30581DA
:1027C000039549BB40B38027182100244AB31668FB
:1027D00006B1344696691EB13146761E382E02D2B5
:1027E0001679F60703D0002004B0BDE8F0815669E1
:1027F00006B1B708D2F808C0BCF1000F0DD0D568FB
:102800005C2D18D312693AB136B18DE806103A46FC
:10281000214601F056FB03900DE0D6685EB91269BF
:102820004AB903AACDE90012BAB2214601F01CFB55
:10283000012800D003950398D6E700002DE9FC4756
:102840001C469046894607464FF00006EFF3058088
:1028500058BB57B3082000F045FC050025D0C5E95A
:102860000078B9F1000F12D00122114B002094B171
:10287000216801B10846A16859B1E4682C2C11D334
:10288000CDE900312B46012101F0BAFC08E000221D
:10289000EBE7E16831B900932B46012101F096FC8A
:1028A000060002D1284600F041FD3046BDE8FC8715
:1028B000D722000808B5EFF3058212B16FF00500CA
:1028C00008BD58B10022134600920A46042101F0C7
:1028D000DFFC012805D06FF0020008BD6FF0030097
:1028E00008BD002008BD00002DE9F041134C0F4643
:1028F0000546E6682068001D00F086FC681C07D1CC
:1029000037B12168BDE8F0410D48091D00F0CEBC8B
:1029100020683544B5424560216805D2A06BBDE80A
:10292000F041091D00F0AABC606B091D00F0A6FC77
:10293000A06A854200D2A562BDE8F0814400002073
:10294000140700202DE9F041054600F0BBFC2D4C9A
:10295000A068401CA06020682B4F10B1606930B3A4
:102960002BE02560A068012827D1002606EB860011
:1029700007EB800000F074FC761C382EF6D3234859
:1029800000F06EFC2148143000F06AFC1F4828302B
:1029900000F066FC1D483C3000F062FC1B485030E3
:1029A00000F05EFC194860631430A06305E0206805
:1029B000E96AC06A884200D82560606A401C60628B
:1029C0006864E86A2169884200D9206100EB8000D0
:1029D00007EB8000291D00F069FC00F093FC6069A2
:1029E00000280CD02068E96AC06A884207D20849EA
:1029F0004FF080500860BFF34F8FBFF36F8FBDE87B
:102A0000F08100004400002064020020C406002081
:102A100004ED00E038B500F055FC104C2068C8B952
:102A20000F4800F01DFC0E48143000F019FC0C4853
:102A3000E060143020610A4B0020F03B009003F16D
:102A4000500210210A2000F0B1FF206010B105A152
:102A500000F0DAFCBDE8384000F054BC80000020F3
:102A600018080020546D72510000000030B4026C50
:102A70000B46002A0BD0C1681144C1608468A14292
:102A800001D30168C16030BC1846FDF7C0BC30BC42
:102A900070472DE9F041856B174604460026026C0D
:102AA00082B1C7B1E068FDF7B2FCE168206C091A99
:102AB000E1602268914202D2A168081AE060022F08
:102AC00016D017E02068A8B9A06801F0A5FA06465C
:102AD0000020A0600EE06068FDF799FC216C606842
:102AE00008446060A168884204D32068606001E007
:102AF00005B16D1E6D1CA5633046BDE8F08110B5B3
:102B0000044690F8590058B101280CD002280FD083
:102B1000502080F31188BFF34F8FBFF36F8FFEE714
:102B2000206B00F003FC2046BDE8104000F0FEBB27
:102B300010BD000010484FF40051420706D0C01DE0
:102B40000D4920F00700411AC1F500510B4A00233E
:102B50000144C2E900030839183A21F00701116065
:102B60004B600B600B1AC0E9001393604FF00040FC
:102B70005360506170470000F80E0020B000002044
:102B8000144E154CA6F29C474FF08058DFF84C903D
:102B900012E000BF00F096FBF068C568281D00F049
:102BA00033FBA068401EA0606068401E606000F0BB
:102BB000A9FB2846FFF7A3FF60680028EAD1386820
:102BC0000128F9D9C9F80080BFF34F8FBFF36F8F89
:102BD000F2E70000000700204400002004ED00E0C0
:102BE000002807D00021816001600B460A46C160C1
:102BF00000F054BF7047000070B51D46049C51B1F1
:102C0000C4F80020C4E90F010121204600F002FFB2
:102C100084F84C5070BD2460F4E700002DE9F05FAB
:102C20008846DDE90B941546834691009A460A9E34
:102C3000A522206BFDF730FC6FF00301206B01EB48
:102C40008501084420F00707780707D0502080F35B
:102C50001188BFF34F8FBFF36F8FFEE70025B8F1E8
:102C6000000F0FD05FF00000221818F8001082F853
:102C7000341018F8001011B1401C1028F4D384F857
:102C8000435001E084F83450382E00D33726E662F2
:102C9000C4E91365201D00F0EEFA04F1180000F0FD
:102CA000EAFA2461C6F138006462A061656584F8BF
:102CB000585052465946384600F094FA2060B9F10F
:102CC000000F01D0C9F80040BDE8F09F2DE9F047A2
:102CD0001E46DDE9089417460D00804615D0002CED
:102CE00011D0FFF797FE04F11801C4F8008081E8C5
:102CF0006002201D00F0BFFA002F04D014F8280F46
:102D000040F004002070BDE8F087502080F3118867
:102D1000BFF34F8FBFF36F8FFEE7000030B511494F
:102D200000E011460A688242FBD34B685C1884427B
:102D300003D1406818444860084643681C18944210
:102D400009D1084C183C2468A24209D052681A44A0
:102D500042600A6812680260814200D0086030BD9B
:102D60000460F9E7B000002070B5002441600B4D0D
:102D70000061914206D8D11A8269914206D2011DA2
:102D8000286907E09A4203D2994201D3012403E063
:102D9000011DE86800F072FA204670BD8000002036
:102DA00010B5044600F08EFAA06B28B15FF0000465
:102DB00000F0A8FA204610BD0124F9E730B589B02B
:102DC0003C4D6EE00498002806DADDE90601059A1C
:102DD00090470498002864DB069C606910B1201DB0
:102DE00000F012FA03A800F0D7F8024604980A2867
:102DF00057D2DFE800F00505052D334A05052D33D0
:102E000094F8280040F0010084F828000599A06992
:102E1000059B01442046FFF7A7FF68B3216A2046BF
:102E2000884794F8280040073BD50020009005987B
:102E3000A169002342181946204601F029FAD8B9A1
:102E4000502080F31188BFF34F8FBFF36F8FFEE7E1
:102E500014F8280F20F00100207022E094F82800D8
:102E600040F0010084F828000598A06128B181187D
:102E700013462046FFF778FF13E0502080F31188B7
:102E8000BFF34F8FBFF36F8FFEE794F828008107E1
:102E900003D4204600F04AFA03E020F0010084F851
:102EA0002800002204A9286800F008FF002889D122
:102EB00009B030BD800000202DE9FC410F460546D9
:102EC00000F0E8FB01A800F067F80446019818B18B
:102ED00001F01AF9BDE8FC81254EAFB130690068F8
:102EE000D0B30027291B3A46306800F0CDFA01F034
:102EF0000BF90028EED11F494FF080500860BFF356
:102F00004F8FBFF36F8FE5E7A542EBD801F0FCF8D8
:102F1000F0682746C068C468201D00F075F994F871
:102F20002800410719D5A0692B4641193A46204689
:102F3000FFF71AFFA8B100200346014600902A4679
:102F4000204601F0A5F960B9502080F31188BFF345
:102F50004F8FBFF36F8FFEE707E020F0010084F88A
:102F60002800216A20468847B4E70127BAE7000015
:102F70008000002004ED00E00648416B096829B19B
:102F8000416BC968C9684968816270474FF0FF3179
:102F9000FAE700004400002070B5054600F0CAFFC3
:102FA000064E0446B068844203D200F009F80120BE
:102FB00000E0002028602046B46070BD8000002042
:102FC000F8B5194D20E0C068C4680668201D00F0FF
:102FD0001BF9216A2046884794F82800400713D53A
:102FE000A0693044B04206D924616060211DE868C0
:102FF00000F044F908E00020034601460090324604
:10300000204601F045F938B1E86801680029DAD1B5
:103010002969C5E90310F8BD502080F31188BFF37A
:103020004F8FBFF36F8FFEE7800000200848406895
:10303000401C4FF0500080F3118804D0BFF34F8F35
:10304000BFF36F8FFEE7BFF34F8FBFF36F8FFEE7C6
:10305000B8000020074CE068016841B1C068002159
:10306000D0F80000FFF728FFFFF7A8FEF3E70121E3
:103070000020F7E7800000202DE9F041044600F031
:1030800021F994F9455004F1240609E0606A48B139
:10309000304601F001F808B100F046FA6D1E6DB23D
:1030A000002DF3DC4FF0FF3684F8456000F02AF97C
:1030B00000F008F994F9445004F1100709E0206980
:1030C00048B1384600F0E8FF08B100F02DFA6D1E57
:1030D0006DB2002DF3DC84F84460BDE8F04100F0EF
:1030E00011B900002DE9F0410546002700F0D2FAA1
:1030F000324E306808B9FFF71DFD706905424ED1A8
:10310000C5B3083568070ED005F00700C0F1080008
:103110000544680707D0502080F31188BFF34F8F14
:10312000BFF36F8FFEE72DB37068854237D8234811
:10313000183001460C6801E020460C466168A9423F
:1031400002D221680029F7D131688C4227D0076864
:103150002168016060680837411B10290FD9601988
:10316000420708D0502080F31188BFF34F8FBFF380
:103170006F8FFEE713E041606560FFF7CFFD616888
:103180007068401A7060B268904200D2B060706996
:1031900001430020C4E90001F068401CF06000F029
:1031A000B3FF780707D0502080F31188BFF34F8F0B
:1031B000BFF36F8FFEE73846BDE8F081980000202E
:1031C00010B5040006D000F07DF8E46900F09AF82C
:1031D000204610BD502080F31188BFF34F8FBFF3FE
:1031E0006F8FFEE710B5031F4FF080741C601B1F2C
:1031F00021F001011960191F024B0B60143940388E
:103200000A6010BD2D300008D0E9013201699A60D2
:10321000D0E901235A604A68824201D182684A603B
:10322000002202610868401E0860086870470000BC
:10323000034B036003F15C0008608020106070475E
:1032400040080020044B036003F15C0008604FF469
:1032500080701060704700009C0A002000F078BA6F
:1032600000F108014FF0FF32C0E90112C1600161B5
:1032700000210160704700210161704730B50B6883
:103280005A1C02D000F1080202E0026904E0224662
:10329000546825689D42FAD953684B6099608A60EA
:1032A000516008610168491C016030BD42684A6094
:1032B00093688B6093685960916008610168491C4C
:1032C00001607047502080F31188BFF34F8FBFF328
:1032D0006F8F0A494868401C486001280CD1084893
:1032E000006810F0FF0F07D0502080F31188BFF363
:1032F0004F8FBFF36F8FFEE770470000B8000020CC
:1033000004ED00E00849486828B1401E486001D13A
:1033100080F311887047502080F31188BFF34F8FDE
:10332000BFF36F8FFEE70000B800002070B50028E3
:103330002AD0164DA0F1080460686969084207D1D7
:10334000502080F31188BFF34F8FBFF36F8FFEE7DC
:1033500022683AB1502080F31188BFF34F8FBFF33A
:103360006F8FFEE78843606000F094F960686968D9
:10337000084468602046FFF7D1FC2869401C28619A
:10338000BDE8704000F0C0BE70BD00009800002095
:103390004FF0E02000210161816105494FF47A720C
:1033A0000968B1FBF2F1491E4161072101617047D3
:1033B0004000002010B5FCF733FF114910280ED350
:1033C00000F1E02090F8F0030A78904207D25020F4
:1033D00080F31188BFF34F8FBFF36F8FFEE709486B
:1033E0000068896800F4E060884207D9502080F3C3
:1033F0001188BFF34F8FBFF36F8FFEE710BD000042
:10340000B80000200CED00E010B5084B002200BF12
:1034100053F832401CB1521C082AF9D310BD43F8AE
:10342000321003EBC201486010BD000024020020EE
:1034300010B504000AD000F013F894F846000028F4
:103440000CD12046BDE81040FFF770BF502080F33C
:103450001188BFF34F8FBFF36F8FFEE710BD0000E1
:10346000084A002102EBC1035B68834206D10020B9
:1034700042F8310002EBC10148607047491C08293D
:10348000F0D370472402002070B515460E4604465E
:10349000FFF718FF94F944100020491C01D184F86B
:1034A000440094F94510491C01D184F84500FFF708
:1034B00029FFA06B28B92A46314604F1240000F008
:1034C00051F82046BDE87040FFF7D6BD10B50200A8
:1034D00014D00F48006B38B1502080F31188BFF32F
:1034E0004F8FBFF36F8FFEE700F0D4F80021104636
:1034F000FFF7FAF900F008FE002807D105494FF060
:1035000080500860BFF34F8FBFF36F8F10BD000076
:103510004400002004ED00E002490A6A0260C96824
:10352000416070474400002001490120C861704794
:103530004400002010B50C4650B109490968183103
:10354000FFF79CFE2046BDE810400121FFF7CCB9F3
:10355000502080F31188BFF34F8FBFF36F8FFEE7CA
:103560004400002070B514460D4668B10A49096848
:103570001831FFF79BFE0CB14FF0FF35214628466E
:10358000BDE87040FFF7B0B9502080F31188BFF359
:103590004F8FBFF36F8FFEE74400002070B5194DC9
:1035A0002A6BF2B141F000410160C4680CB3FFF72F
:1035B0002BFE201DFFF728FEE06A2969884200D90A
:1035C0002861114900EB800001EB8000211DFFF70D
:1035D0006DFEE06A2968C96A884201D90120E86164
:1035E00070BD502080F31188BFF34F8FBFF36F8FF2
:1035F000FEE7502080F31188BFF34F8FBFF36F8F2A
:10360000FEE70000440000206402002030B587B0CF
:103610000024039405AA04A903A80494FFF708FE54
:10362000DDE903010094CDE90110002315A117483D
:10363000059A00F046FC164D0028E8621FD000F005
:10364000F7FD012809D0401C19D1502080F31188C2
:10365000BFF34F8FBFF36F8FFEE7502080F31188C9
:10366000BFF34F8FBFF36F8F4FF0FF30A862012081
:103670006861EC6007B0BDE8304000F0B7B807B053
:1036800030BD000049444C4500000000812B00087B
:10369000440000200248016B491C01637047000090
:1036A00044000020164810B5016B11B10121C16121
:1036B00010BD0021C1610169124A01E0B9B1491E82
:1036C00001EB810352F82330002BF7D001EB81038B
:1036D00002EB830202F1080453685B685360A34263
:1036E00001D15B685360DA680260016110BD50204F
:1036F00080F31188BFF34F8FBFF36F8FFEE7000099
:10370000440000206402002070B52020FFF7EAFC8E
:10371000040005D00025201D2560FFF7A1FD2577B9
:10372000204670BD38B558B12021044600200091D4
:103730002060201DFFF794FD01202077204638BD32
:10374000502080F31188BFF34F8FBFF36F8FFEE7D8
:103750002DE9F0410027884604000AD05FEA18608E
:103760000FD0502080F31188BFF34F8FBFF36F8FBE
:10377000FEE7502080F31188BFF34F8FBFF36F8FA8
:10378000FEE7261D04F10C05FFF784FF2168F068B1
:1037900041EA0801216017E0D0E9001601F07F42FC
:1037A0005301236821F07F4102D40B4203D10AE088
:1037B00031EA030307D1D20100D50F43216841F05C
:1037C0000071FFF7EBFE3046A842E5D12068B84310
:1037D000206000F099FC2068BDE8F08113460A469D
:1037E0000146014800F088BD5D3200081CB526493D
:1037F00008780190FF20087008788DF800009DF887
:1038000000009DF8002000F0F000904207D050200A
:1038100080F31188BFF34F8FBFF36F8FFEE79DF8E2
:1038200000001A4C00F0500020700720A06005E056
:103830009DF8002052008DF80020401E9DF80020C9
:103840001206F5D4A060032807D0502080F3118819
:10385000BFF34F8FBFF36F8FFEE74FF44070A06050
:10386000019808700A48016841F47001016001681C
:1038700041F070410160FFF78BFD00206060FCF7B4
:1038800099FC00201CBD000000E400E0B80000200E
:1038900020ED00E010B5502080F31188BFF34F8F6A
:1038A000BFF36F8F00F054FB18B104494FF0805004
:1038B0000860002080F3118810BD000004ED00E0D6
:1038C00010B50C4648B184420FD9502080F31188BE
:1038D000BFF34F8FBFF36F8FFEE7502080F3118847
:1038E000BFF34F8FBFF36F8FFEE70222002100F07E
:1038F0003CF8002800D0846310BD38B50C4648B1B0
:1039000084420FD9502080F31188BFF34F8FBFF34B
:103910006F8FFEE7502080F31188BFF34F8FBFF306
:103920006F8FFEE70221134600220091114600F03E
:103930003DF8002800D0846338BD10B50246002150
:10394000012000F012F80446FFF74AF9204610BDA6
:1039500038B50B46002200901146012000F026F8F1
:103960000446FFF73DF9204638BDF8B517460E4628
:10397000050013D005FB06F05030FFF7B3FB040041
:103980000AD0002084F8460004F150023B4631463C
:1039900028460094FFF730F92046F8BD502080F308
:1039A0001188BFF34F8FBFF36F8FFEE738B5049DCB
:1039B00018B153B1CAB181B120E0502080F3118811
:1039C000BFF34F8FBFF36F8FFEE7502080F3118856
:1039D000BFF34F8FBFF36F8FFEE7502080F3118846
:1039E000BFF34F8FBFF36F8FFEE739B1502080F3E5
:1039F0001188BFF34F8FBFF36F8FFEE750241C4633
:103A0000012384F846302B460094FFF7F5F8204652
:103A100038BD000070B50D46040025D0FFF752FCFC
:103A2000D4E90F20216802FB0011A1600021A163ED
:103A3000216861600A46D4E90F01401E00FB0121A4
:103A4000E16021464FF0FF3001F8440F487004F167
:103A500010008DB1FFF704FC04F12400FFF700FC17
:103A6000FFF750FC012070BD502080F31188BFF398
:103A70004F8FBFF36F8FFEE721690029F0D000F070
:103A80000BFB0028ECD004494FF080500860BFF3D6
:103A90004F8FBFF36F8FE3E704ED00E02DE9FF47A1
:103AA00082B01D468A464FF00008040003D0BAF1E8
:103AB000000F08D011E0502080F31188BFF34F8F22
:103AC000BFF36F8FFEE7206C38B1502080F3118870
:103AD000BFF34F8FBFF36F8FFEE7022D0AD1E06B6C
:103AE000012807D0502080F31188BFF34F8FBFF318
:103AF0006F8FFEE700F010FA3F4F4FF000094FF0D4
:103B0000805648B9049838B1502080F31188BFF32B
:103B10004F8FBFF36F8FFEE7FFF7D4FBA06BE16B16
:103B2000884207D3022D05D00498D0B1B8F1000F18
:103B30001AD01EE02A4651462046FEF7AAFF616AC7
:103B400019B104F1240000F0A7FA20B13E60BFF3E0
:103B50004F8FBFF36F8FFFF7D5FB012006B0BDE895
:103B6000F087FFF7CFFB22E06846FFF7D5FC4FF068
:103B70000108FFF7C7FBFFF78DFDFFF7A3FB94F9E3
:103B80004400401C01D184F8449094F94500401C45
:103B900001D184F84590FFF7B5FB04A9684600F011
:103BA00029F930B12046FFF767FA00F0ADFA00209E
:103BB000D4E7FFF787FBA06BE16B884213D1FFF7D7
:103BC000A1FB04F110000499FFF7B4FC2046FFF7B5
:103BD00053FA00F099FA00289ED13E60BFF34F8F50
:103BE000BFF36F8F98E7FFF78DFB2046FFF744FA8E
:103BF00000F08AFA90E7000004ED00E02DE9F047BC
:103C00001F4690468946040003D0B9F1000F08D042
:103C100011E0502080F31188BFF34F8FBFF36F8FF7
:103C2000FEE7206C38B1502080F31188BFF34F8F2E
:103C3000BFF36F8FFEE7022F0AD1E06B012807D098
:103C4000502080F31188BFF34F8FBFF36F8FFEE7D3
:103C5000FFF7B0FB5020EFF3118680F31188BFF31C
:103C60004F8FBFF36F8FA06BE16B884206D3022F9B
:103C700004D0002086F31188BDE8F08794F9455000
:103C8000A06B3A4649462046FEF703FF681C04D065
:103C90006D1C84F845500120ECE7606A0028FAD0DA
:103CA00004F1240000F0F8F90028F4D0B8F1000F76
:103CB000F1D00121C8F80010EDE700002DE9F74729
:103CC000002683B08A46040003D0BAF1000F08D062
:103CD00011E0502080F31188BFF34F8FBFF36F8F37
:103CE000FEE7206C38B1502080F31188BFF34F8F6E
:103CF000BFF36F8FFEE700F00FF9DFF8F4804FF0AD
:103D000000094FF0805748B9059838B1502080F32A
:103D10001188BFF34F8FBFF36F8FFEE7FFF7D2FA23
:103D2000A56BC5B151462046FEF7A0FE6D1EA563EA
:103D3000206950B104F1100000F0AEF928B1C8F8C4
:103D40000070BFF34F8FBFF36F8FFFF7DBFA0120D7
:103D500006B0BDE8F087059808B11EB106E0FFF790
:103D6000D1FA27E06846FFF7D7FB0126FFF7CAFA2A
:103D7000FFF790FCFFF7A6FA94F94400401C01D12C
:103D800084F8449094F94500401C01D184F8459092
:103D9000FFF7B8FA05A9684600F02CF8002820467D
:103DA0000AD0FFF769F900F0AFF92046FEF7F8FFF7
:103DB0000028B3D00020CBE7FEF7F2FF90B104F16A
:103DC00024000599FFF7B6FB2046FFF755F900F0F0
:103DD0009BF90028A2D1C8F80070BFF34F8FBFF342
:103DE0006F8F9BE72046FFF747F900F08DF995E7C5
:103DF00004ED00E02DE9F0410C46050011D0C4B1FE
:103E0000FFF760FA174BDA686E682068911B471C51
:103E100017D02F681B6A9F4219D0964217D80124E9
:103E200010E0502080F31188BFF34F8FBFF36F8FE6
:103E3000FEE7502080F31188BFF34F8FBFF36F8FE1
:103E4000FEE70024FFF75EFA2046BDE8F0818842D5
:103E500005D9401A20602846FFF75EFBF1E70020F5
:103E60002060DCE7440000202DE9FF5F8346DDE9A8
:103E70000E87994616468A469000FFF733F90500EB
:103E80001CD05C20FFF72EF9040014D0002025631D
:103E900084F85900CDE90240CDE900874B4632460F
:103EA00051465846FEF7BAFE2046FEF74BFD01206C
:103EB00004B0BDE8F09F2846FFF738FA4FF0FF3016
:103EC000F6E7F0B585B0DDE90B640A9DA6B1DCB17B
:103ED0005C2700972663022684F85960002604AF09
:103EE000CDE90246CDE90057FEF798FE2046FEF7E1
:103EF00029FD049805B0F0BD502080F31188BFF370
:103F00004F8FBFF36F8FFEE7502080F31188BFF310
:103F10004F8FBFF36F8FFEE70548416919B1006B02
:103F200018B1002070470120704702207047000040
:103F3000440000200148C068704700004400002091
:103F400010B5FFF737FA0148C06810BD44000020E3
:103F50002DE9F0412E4C0027206B28B1A069401CB0
:103F6000A0613846BDE8F081E668761CE66013D1B2
:103F7000606B006838B1502080F31188BFF34F8F19
:103F8000BFF36F8FFEE7606BA16B6163A063206A74
:103F9000401C2062FEF7F0FFA06ADFF878808642BE
:103FA00009D3606B0068A0B1606BC068C5686868C1
:103FB000864211D2A0622068C06A00EB800158F8E6
:103FC0002100012800D90127E0690028C9D0012774
:103FD000C7E74FF0FF30EDE7281DFFF715F9A86A96
:103FE00018B105F11800FFF70FF9E86A2169884256
:103FF00000D9206100EB800108EB8100291DFFF74B
:1040000055F9E86A2168C96A8842CAD30127C8E716
:10401000440000206402002070B504004FF000014D
:1040200033D01B4D2868844207D0502080F311887C
:10403000BFF34F8FBFF36F8FFEE7206D38B1401E87
:104040002065E36CE26A9A421FD040B11DE0502027
:1040500080F31188BFF34F8FBFF36F8FFEE7201DF2
:10406000FFF7D2F8E06CE062C0F13800A061E06ACE
:104070002969884200D92861064900EB800001EBDC
:104080008000211DFFF712F90121084670BD0000D4
:10409000440000206402002070B5C068C46854B1B8
:1040A00004F118000646FFF7AFF8144D286B50B125
:1040B0003146134815E0502080F31188BFF34F8F2D
:1040C000BFF36F8FFEE7201DFFF79EF8E06A2969B6
:1040D000884200D928610B4900EB800001EB800089
:1040E000211DFFF7E3F8E06A2968C96A884202D90E
:1040F0000120E86170BD002070BD00004400002078
:10410000EC060020640200202DE9F0472C4D00242D
:104110002746286B38B1FFF7D5F8286B401E286377
:10412000286B40B146E0502080F31188BFF34F8FD9
:10413000BFF36F8FFEE7A968224E0120D1B3A6F529
:10414000916980463068E0B1F068C46804F11800F5
:10415000FFF75AF8201DFFF757F8E06A29698842EF
:1041600000D9286100EB800109EB8100211DFFF7D8
:104170009DF8E06A2968C96A8842E3D3C5F81C80C3
:10418000E0E70CB1FEF7F8FEAC694CB14FEA080667
:10419000FFF7DEFE00B1EE61641EF9D10020A861D8
:1041A000E86938B10849012738070860BFF34F8F25
:1041B000BFF36F8FFFF7A6F83846BDE8F087000021
:1041C00044000020EC06002004ED00E02DE9FC474F
:1041D00081461E46174688462C200A9DFEF782FF20
:1041E00004000AD0002084F82800CDE900543346AA
:1041F0003A4641464846FEF769FD2046BDE8FC8741
:104200007CB52C26DDE90654009644B1022684F8DC
:104210002860CDE90054FEF759FD20467CBD5020B2
:1042200080F31188BFF34F8FBFF36F8FFEE700005D
:1042300010B586B0FEF7EEFB114C2068B8B1002037
:104240000390049005AA04A903A8FEF7FBFFDDE98B
:10425000032102208DE8070000230AA10B48059ADC
:10426000FFF72FFE606010B106B0012010BD502096
:1042700080F31188BFF34F8FBFF36F8FFEE700000D
:1042800080000020546D7220537663005530000882
:104290002DE9FF411E46134602000A9D4FF0000023
:1042A00016D0144C2768002F0FD0CDE900130292CE
:1042B000062917DAFFF730FE02284FF000030FD06F
:1042C000002269462068FFF7E9FB04B0BDE8F081F1
:1042D000502080F31188BFF34F8FBFF36F8FFEE73D
:1042E0002A46EEE70023324669463846FFF786FC49
:1042F000EBE70000800000201FB51C466FF00103B3
:10430000CDE90030CDE90212044800232246694677
:104310000068FFF773FC04B010BD000080000020AF
:10432000E84300080000000000000000000000005A
:104330000000000000000000004400080000000031
:1043400000000000000000002444000800000000FD
:1043500000000000000000003044000800000000E1
:1043600000000000000000001844000800000000E9
:1043700000000000000000000844000800000000E9
:104380000000000000000000F443000800000000EE
:10439000000000000000000000000000000200001B
:1043A0001800000000000000000000004044000869
:1043B00000000000000000000000000001020203F5
:1043C0000405060708090A0B0C0D0E0F101000005B
:1043D00000000000000001020304060708090000B5
:1043E00000000102030400004B6579517565756595
:1043F0000000000064656661756C745461736B0045
:104400004C454453656D00004C45444272656174EF
:104410006854696D657200005072696E7454696DFC
:10442000657200004C45444576656E7400000000DE
:104430004D656D506F6F6C4D7574657800000000B0
:10444000556172744D757465780000006C44000805
:1044500000000020C40000002801000830450008CA
:10446000C400002094340000440100080000000152
:10447000000100000000000000000000000000003B
:10448000000000000000000000000000000000002C
:10449000000000000000000000000000000000001C
:1044A00001000000100000000000000000127A006F
:1044B00000000000000000000000000000000000FC
:1044C00000000000000000000000000000000000EC
:1044D00000000000000000000000000000000000DC
:1044E00000000000000000000000000000000000CC
:1044F00000000000000000000000000000000000BC
:1045000000000000000000000000000000000000AB
:10451000000000000000000000000000000000009B
:104520000000000000000000AAAAAAAA00000000E3
:04000005080000ED02
:00000001FF
