:020000040800F2
:10000000083500202102000867190008F9160008C9
:1000100065190008A7040008E51C0008000000009E
:10002000000000000000000000000000890100083E
:10003000E104000800000000CD010008711900086B
:100040003B0200083B0200083B0200083B0200089C
:100050003B0200083B020008E30400083B020008E2
:100060003B0200083B0200083B0200083B0200087C
:100070003B0200083B020008C9040008D504000840
:100080003B0200083B0200083B0200083B0200085C
:100090003B0200083B0200083B0200083B0200084C
:1000A0003B0200083B0200083B0200083B0200083C
:1000B000ED1900083B0200083B0200083B02000863
:1000C0003B0200083B0200083B0200083B0200081C
:1000D0003B020008D91C00083B0200083B02000854
:1000E0003B0200083B0200083B02000800F002F857
:1000F00000F03AF80AA090E8000C82448344AAF188
:100100000107DA4501D100F02FF8AFF2090EBAE885
:100110000F0013F0010F18BFFB1A43F0010318473B
:10012000843A0000A43A0000103A24BF78C878C18D
:10013000FAD8520724BF30C830C144BF04680C60ED
:10014000704700000023002400250026103A28BF35
:1001500078C1FBD8520728BF30C148BF0B60704739
:100160001FB51FBD10B510BD00F064F91146FFF7B3
:10017000F7FF01F0C8FD00F082F903B4FFF7F2FFCA
:1001800003BC00F089F90000224B19680868B0E848
:10019000F00F80F30988BFF36F8F4FF0000080F3FA
:1001A00011884EF00D0E70470000000006480068F0
:1001B000006880F3088862B661B6BFF34F8FBFF363
:1001C0006F8F00DF00BF00BF08ED00E0EFF3098094
:1001D000BFF36F8F0F4B1A6820E9F00F106008B55E
:1001E0004FF0500080F31188BFF34F8FBFF36F8F34
:1001F00002F0C0FD4FF0000080F31188BDE8084018
:1002000019680868B0E8F00F80F30988BFF36F8FB2
:10021000704700BF38000020EFF3058070470000F2
:100220000948804709480047FEE7FEE7FEE7FEE78A
:10023000FEE7FEE7FEE7FEE7FEE7FEE704480549C6
:10024000054A064B70470000E9190008ED00000858
:10025000082F002008350020083100200831002038
:1002600010B5431C02E010F8011B71B18107FAD1EF
:100270004FF0013202C88C1A8C4314EAC211F9D033
:10028000C01A0A0603D0C01E10BDC01A10BD0A0451
:1002900001D0801E10BD0902FCD0401E10BD032AF3
:1002A00040F2308010F0030C00F0158011F8013B93
:1002B000BCF1020F624498BF11F801CB00F8013B7A
:1002C00038BF11F8013BA2F1040298BF00F801CB3E
:1002D00038BF00F8013B11F0030300F05780083AE3
:1002E000C0F0088051F8043B083A51F804CBA0E86C
:1002F0000810F5E7121D5CBF51F8043B40F8043BC1
:10030000AFF30080D20724BF11F8013B11F801CBF5
:1003100048BF11F8012B24BF00F8013B00F801CBC6
:1003200048BF00F8012B704702F0FF0343EA0322A5
:1003300042EA024200F05EB84FF0000200B51346F8
:1003400094469646203922BFA0E80C50A0E80C50F5
:10035000B1F12001BFF4F7AF090728BFA0E80C50A6
:1003600048BF0CC05DF804EB890028BF40F8042B9F
:1003700008BF704748BF20F8022B11F0804F18BF0C
:1003800000F8012B704770477047704710B5203A4E
:10039000C0F00B80B1E81850203AA0E81850B1E83E
:1003A0001850A0E81850BFF4F5AF5FEA027C24BFF4
:1003B000B1E81850A0E8185044BF18C918C0BDE8EB
:1003C00010405FEA827C24BF51F8043B40F8043BB4
:1003D00008BF7047D20728BF31F8023B48BF11F869
:1003E000012B28BF20F8023B48BF00F8012B7047C3
:1003F0004FF000020429C0F0128010F0030C3FF40B
:100400009DAFCCF1040CBCF1020F18BF00F8012B1A
:10041000A8BF20F8022BA1EB0C01FFF78FBF5FEA0A
:10042000C17C24BF00F8012B00F8012B48BF00F865
:10043000012B7047754600F02BF8AE460500694663
:10044000534620F00700854618B020B5FFF7F6FEAA
:10045000BDE820404FF000064FF000074FF00008C5
:100460004FF0000B21F00701AC46ACE8C009ACE846
:10047000C009ACE8C009ACE8C0098D46704710B5AA
:100480000446AFF300802046BDE81040FFF775BE7C
:1004900000487047A42E002001491820ABBEFEE79B
:1004A000260002007047FEE710B50446FFF7D8FEAD
:1004B000214682B2BDE810404FF47A73014801F042
:1004C000CAB80000B8000020014800F07FB8000062
:1004D00044010020014800F079B80000000100202C
:1004E0007047012000F074B972B6FEE710B590F8BD
:1004F00021100022022905D00421816380F82020E8
:10050000012010BD01680B6823F00E030B60016829
:100510000B6823F001030B6090F84030C46B01219D
:1005200001FA03F3636080F8211080F82020104660
:1005300010BD000010B590F821100024022903D04E
:100540000421816301243DE001680A6822F00E0263
:100550000A6001680A6822F001020A601A4A01680A
:10056000914201D1012121E0174A1432914201D177
:1005700010211BE0144A2832914201D1891515E05F
:10058000114A3C32914201D189140FE00E4A503297
:10059000914202D14FF4803108E00B4A643291421B
:1005A00002D14FF4801101E04FF08071064A083A01
:1005B0005160012180F82110002180F82010416B4A
:1005C00001B18847204610BD080002402DE9F05FC8
:1005D000C16B0C6801680B68D0F840C0042202FAB5
:1005E0000CF2494DDFF824A1494E4A4FDFF828B1FB
:1005F000DFF828E122422CD05A072AD50A68920651
:1006000003D40A6822F004020A600168A94201D1F9
:10061000042219E0514501D1402215E0B14202D136
:100620004FF4806210E0B94202D14FF480420BE0F7
:10063000594502D14FF4802206E0714502D14FF4B2
:10064000800201E04FF080622F4908394A60C16A98
:100650003BE04FF0020808FA0CF818EA040F4FF0DC
:1006600000094FF0010235D05FEA837832D50B687C
:100670009B0605D40B6823F00A030B6080F8212049
:100680000168A94201D1022219E0514501D120227D
:1006900015E0B14202D14FF4007210E0B94202D12C
:1006A0004FF400520BE0594502D14FF4003206E0FE
:1006B000714502D14FF4001201E04FF0007212496F
:1006C00008394A6080F82090816A00291AD0BDE874
:1006D000F05F0847082505FA0CF5254212D01B07E4
:1006E00010D50B6823F00E030B6090F84010C36B1D
:1006F00002FA01F15960826380F8212080F820908D
:10070000016BE2E7BDE8F09F080002401C000240D8
:100710003000024044000240580002406C00024099
:1007200030B528B308C8134914221944B1FBF2F1BB
:100730008900C16310498163022141771A6843F639
:10074000F0718A43D0E900142143D0E902452C43DB
:1007500021430469214344692143846921431143AE
:10076000196000214163012242770177084630BDBC
:10077000012030BDF8FFFDBF0000024008B5002198
:100780000091012813D10A486A460C21406902F001
:100790008DFB08A0FFF788FE0098002807D00B49C2
:1007A0004FF080500860BFF34F8FBFF36F8F08BDCD
:1007B00000000020496E7465727275707420547266
:1007C00069676765726564210D0A000004ED00E049
:1007D000044910B50A68024202D00860FFF7CEFF54
:1007E00010BD0000140401402DE9F84FDFF8B89166
:1007F0000024A9F1040B23460F2709F1040AABF1E9
:10080000040EC9E00125A5402A40AA427DD1674EC9
:10081000D1F804C0ACEB0608B44532D014DCBCF10E
:10082000030F3AD009DCBCF1000F2AD0BCF1010F54
:100830001CD0BCF1020F31D11DE0BCF1110F17D05B
:10084000BCF1120F2AD119E0B8F5881F19D006DCC7
:10085000B8F5803F15D0B8F5801F1FD111E0B8F56D
:10086000001F0ED0B8F5041F18D10AE0CB6815E0C0
:10087000CB681B1D12E0CB6808330FE0CB680C334C
:100880000CE08B682BB1012B4FF0080303D04561BE
:1008900004E0042302E0056100E00023FF2A01D800
:1008A000064601E000F104064FEA840501D9A5F1EE
:1008B0002005D6F8008007FA05FC28EA0C0803FAA0
:1008C00005F548EA0508C6F800804D68ED0062D5D8
:1008D000374DAE6946F00106AE61AD6924F00306FE
:1008E00005F001050095334D06EB050CDCF80850CA
:1008F000A607360F07FA06F825EA0805DFF8B880DC
:10090000404503D14FF0000817E044E0DFF8AC8029
:10091000404502D14FF001080FE0DFF8A4804045C8
:1009200002D14FF0020808E0DFF89880404502D17C
:100930004FF0030801E04FF0040808FA06F848EA0F
:100940000508CCF808804D68D9F80060ED024D46E6
:1009500001D5164300E096432E604D68DAF800603A
:10096000AD02554601D5164300E096432E604D6812
:10097000DBF80060AD035D4601D5164300E0964309
:100980002E604D68DEF80060ED03754601D5164314
:1009900000E096432E60641C0D682A46E5407FF413
:1009A00031AFBDE8F88F00000804014000001110CD
:1009B000001002400000014000080140000C01400E
:1009C0000010014000140140C26821EA02030A40FD
:1009D00043EA0241016170470AB1016170470904AD
:1009E000FBE70000014880687047000028000020F5
:1009F0000248816802781144816070472800002015
:100A0000074810B5016841F010010160032000F0B3
:100A1000A7F80F2000F006F800F050F8002010BDF5
:100A20000020024030B50546204887B0C16941F03A
:100A30000101C161C06906A900F00100009001A890
:100A400000F036F90498B8B100F052F940001849A6
:100A50004FF08042B0FBF1F11648491E0260416040
:100A600040F2E7320021C0E903218160816100F09A
:100A700017FB040003D015E000F03AF9E7E70D4852
:100A800000F03CFB04000DD11C2000F03BF8102DC1
:100A900007D2002229461C2000F042F806480560D3
:100AA00000E0012407B0204630BD000000100240E5
:100AB00040420F00880100202C0000200F4808B59C
:100AC000816941F001018161816901F001010091B9
:100AD000C16941F08051C161C069002200F08050BD
:100AE00000900F21901E00F01BF80548416821F08E
:100AF000E06141F00071416008BD0000001002405B
:100B000000000140002809DB00F01F020121914094
:100B10004009800000F1E020C0F80011704700009B
:100B2000F0B40E4B1B680C46C3F30223C3F1070558
:100B3000042D00D90425191D072901D2002300E046
:100B4000DB1E012606FA05F1491E214099409E4010
:100B5000761E16403143F0BC01F0C5B80CED00E044
:100B6000064900F0070208684FF6FF03184040EA04
:100B70000220034A10430860704700000CED00E0BB
:100B80000000FA052DE9F0470F46050061D0434EFD
:100B9000306800F00700B84209D2306820F0070042
:100BA00038433060306800F00700B84251D12868FF
:100BB0003B4C810712D5400703D5606840F4E060E4
:100BC00060602878000703D5606840F4605060607A
:100BD0006068A96820F0F000084360602878C007CA
:100BE00028D06868012810D02168022810D0890711
:100BF00000292EDA616821F0030101436160FFF7EB
:100C0000F1FE804641F288390DE021688903EFE763
:100C10008901EDE7FFF7E6FEA0EB0801494502D99F
:100C20000320BDE8F0876068696800F00C00B0EB55
:100C3000810FEFD1306800F00700B8420BD930685F
:100C400020F0070038433060306800F00700B842F9
:100C500001D00120E5E72878400705D56068E968FC
:100C600020F4E060084360602878000706D56068DB
:100C7000296920F4605040EAC100606000F058F833
:100C80006168084AC1F30311515CC8400649086015
:100C900006480068FFF7C6FE0020C2E700200240B9
:100CA00000100240363B0008340000202C000020D9
:100CB0000F2202600C4A536803F003034360536839
:100CC00003F0F0038360536803F4E063C360526889
:100CD0004FF4E06303EAD20202610448006800F0C6
:100CE000070008607047000000100240002002402A
:100CF0000448054900684968044AC1F30221515C6F
:100D0000C84070473400002000100240463B0008F5
:100D10000448054900684968044AC1F3C221515C8E
:100D2000C84070473400002000100240463B0008D5
:100D30000E4A51680E4801F00C03042B11D0082B09
:100D40000FD10C48C1F38343C903C05C0AD5516875
:100D5000084AC1F34041921E515C054A5043B0FB22
:100D6000F1F070470449484370470000001002400A
:100D700000127A00263B000800093D002DE9F84FDB
:100D8000040070D02078C04DC00749D06868C0F317
:100D90008100012807D06868C0F38100022809D1CA
:100DA0006868C00306D52868800339D560680028C4
:100DB000E7D035E06068B0F5803F0BD010B1B0F5FA
:100DC000A02F11D0286820F480302860286820F4F3
:100DD000802002E0286840F480302860606890B18C
:100DE000FFF700FE06460AE0286840F480202860ED
:100DF000F0E700BFFFF7F6FD801B642873D8286872
:100E00008003F7D50CE0FFF7EDFD064605E000BFD7
:100E1000FFF7E8FD801B6428F0D828688003F7D42A
:100E200020789A4E80074FF001094FF0000839D51D
:100E3000686810F00C0F07D06868C0F381000228C2
:100E400009D16868C00306D42868800714D52069D2
:100E5000012808D110E02069B0B1C6F80090FFF772
:100E6000C1FD074605E00AE1FFF7BCFDC01B0228F3
:100E7000C4D828688007F7D52868616920F0F80091
:100E800040EAC10028600DE0C6F80080FFF7AAFD27
:100E9000074604E0FFF7A6FDC01B022823D82868F8
:100EA0008007F7D4207800072CD57948A169D9B1FB
:100EB000C0F80090FFF796FD074604E0FFF792FDAB
:100EC000C01B02280FD8686A8007F7D571484FF415
:100ED000FA510068B0FBF1F0009000BF0098411E8D
:100EE0000091FAD20EE080E0C0F80080FFF77AFDB2
:100EF000074604E0FFF776FDC01B022875D8686A34
:100F00008007F7D42078400760D5E8690027C00043
:100F100008D4E86940F08050E861E869012700F0F2
:100F2000805000905C480168C90513D4016883466D
:100F300041F480710160FFF755FD824606E000BF75
:100F4000FFF750FDA0EB0A0064284ED8DBF8000044
:100F5000C005F5D5E06801280AD008B1052813D0EE
:100F6000286A20F001002862286A20F0040002E0CC
:100F7000286A40F001002862E06841F2883B98B19D
:100F8000FFF730FD82460BE0286A40F0040028623B
:100F9000EEE700BFFFF726FDA0EB0A0159455AD83E
:100FA000286A8007F6D50CE0FFF71CFD824605E0B5
:100FB000FFF718FDA0EB0A0159454CD8286A8007B5
:100FC000F6D41FB1E86920F08050E861E06988B389
:100FD0006968C1F38101022944D00228C6F8608003
:100FE00004D0FFF7FFFC044638E034E0FFF7FAFCDA
:100FF000074604E0FFF7F6FCC01B02282BD8286840
:101000008001F7D4206AB0F5803F05D16868A168F7
:1010100020F4003008436860D4E908010843696897
:1010200021F4741108436860C6F86090FFF7DAFC99
:10103000044606E025E000BFFFF7D4FC001B0228B1
:1010400009D828688001F7D51BE000BFFFF7CAFC6C
:10105000001B022802D90320BDE8F88F2868800110
:10106000F4D40EE00128F7D06868226A00F48031D9
:10107000914204D1616A00F47010884201D00120CD
:10108000EAE70020E8E700000010024000004242CA
:1010900080044242340000200070004070477047D6
:1010A00010B5040003D094F83D0010B107E0012012
:1010B00010BD002084F83C00204600F01EF80220FD
:1010C00084F83D00211D206800F096FC012084F882
:1010D000460084F83E0084F83F0084F8400084F81D
:1010E000410084F8420084F8430084F8440084F806
:1010F000450084F83D00002010BD704790F83D1079
:10110000012901D001207047022180F83D100168BB
:10111000CA6842F00102CA6000680B49884208D0E0
:10112000B0F1804F05D00949884202D00849884271
:1011300004D1816801F00701062903D0016841F05C
:101140000101016000207047002C014000040040B4
:101150000008004070472DE9F04104460068C66869
:1011600005694FF00007A90713D5B10711D5F91E7E
:10117000016101202077206880698007204602D025
:10118000FFF7E8FF04E000F07EF8204600F07CF86E
:101190002777680716D5700714D521686FF004000B
:1011A0000861022020772068806910F4407F204683
:1011B00002D0FFF7CFFF04E000F065F8204600F012
:1011C00063F82777280715D5300713D521686FF006
:1011D00008000861042020772068C0698007204645
:1011E00002D0FFF7B7FF04E000F04DF8204600F012
:1011F0004BF82777E80616D5F00614D521686FF06E
:1012000010000861082020772068C06910F4407F32
:10121000204602D0FFF79EFF04E000F034F820469D
:1012200000F032F82777E80708D0F00706D02168E9
:101230006FF001000861204600F027F8280608D565
:10124000300606D521686FF0800008612046FFF760
:1012500025FF680608D5700606D521686FF04000A6
:101260000861204600F018F8A8060AD5B00608D58F
:1012700021686FF0200008612046BDE8F041FFF7CB
:101280000EBFBDE8F081704770470068B0F1804F35
:1012900001D1FFF7ADBB7047704770477047000042
:1012A000F8B5016804460868CA684B6910F00F0F6A
:1012B0004FF0000559D003F0010602F49077374350
:1012C00065D0C10705D0D10503D5616C41F001019E
:1012D0006164410705D5D90703D0616C41F0020173
:1012E0006164810705D5D90703D0616C41F0040121
:1012F0006164010707D502F02001314303D0616C1E
:1013000041F008016164616C00293AD0800604D57F
:10131000900602D5204600F0E7FB20684069616C2A
:10132000C0F38010090700D460B3204600F0A8FB8A
:1013300020684069400621D52068143050E8001F1D
:1013400021F0400140E80012002AF5D1E06BA8B17D
:101350006D494163E06BFFF7EDF8002811D0E06BB9
:10136000416B01B0BDE8F040084783060FD59306F6
:101370000DD52046BDE8F84000F0B6BB2046FFF78B
:101380008DFFF8BD2046FFF789FF6564F8BD266B29
:101390002023012E7CD1C6067AD5D60678D50868DA
:1013A0004868009048694FF00206400640D5E16B5E
:1013B000086840680004000CE8D0A28D8242E5D99C
:1013C000E085886920282DD020680C3050E8001F67
:1013D00021F4807140E80012002AF5D12068143011
:1013E00050E8001F21F0010140E80012002AF5D169
:1013F0002068143050E8001F21F0400140E800123E
:10140000002AF5D184F84230256320680C3050E87A
:10141000001F21F0100140E80012002AF5D1E06B16
:10142000FFF764F86663A08DE18D401A81B22AE06F
:10143000A08DE18D401A81B2E08D0028A6D0002950
:10144000A4D022680C3252E8000F20F4907042E8D9
:101450000007002FF5D12068143050E8002F22F04B
:10146000010240E80027002FF5D184F842302563BF
:1014700020680C3050E8002F22F0100240E80023D2
:10148000002BF5D166632046FFF707FFF8BDFFE7A5
:1014900005062BD5150629D594F841002128F5D14C
:1014A000A068B0F5805F01D12069B0B1206A411C0D
:1014B0002162216800784860E08C401E0004000C26
:1014C000E084E3D12068C16821F08001C160206818
:1014D000C16841F04001C160D8E7206A0088C0F3CC
:1014E00008004860206A801C2062E5E74006CDD5F0
:1014F0005006CBD5CA68204622F04002CA6084F864
:10150000413000F0F8F8C1E7711A000870B5040026
:1015100004D094F84100002510B106E0012070BD10
:1015200084F84050204600F023F8242084F841003D
:101530002068C16821F40051C160204600F036FBEC
:101540002068016921F4904101612068416921F01E
:101550002A0141612068C16841F40051C16065649D
:10156000202084F8410084F842006563002070BDAB
:101570002DE9F04186B000240646009401940294BF
:10158000039400682E49884257D12E48816941F45E
:1015900080418161816901F480410491816941F058
:1015A000040181618069284D00F0040004904FF42B
:1015B00000700090022001900320039069462846A5
:1015C000FFF712F92815CDE9000469462846029470
:1015D000FFF70AF91E4D1D484FF08008C5E90004C9
:1015E000C5E902482C6187146C61C5E906472846A5
:1015F000FFF796F808B1FEF777FFF5636E62144DBA
:1016000012484435143801C51020A5E811011048CE
:1016100045F8104944306C61C5E90647FFF780F88A
:1016200008B1FEF761FFB5630022052125206E6237
:10163000FFF776FA2520FFF765FA06B0BDE8F081DE
:1016400000380140001002400008014058000240EC
:101650000001002070472DE9F843044690F841004E
:10166000984616460D46202802D00220BDE8F88391
:1016700085B17EB100206064212084F84100FFF72D
:10168000B1F9A6848146E684A0682027B0F5805F82
:1016900002D003E00120E9E7206910B12E460025C1
:1016A0000EE000260CE08021204600F0DBFAA8B90D
:1016B000C6B116F8010B21684860E08C401EE0843A
:1016C000E08C4B464FF00002CDF800800028EAD1B4
:1016D0004FF04001204600F0C5FA40B184F8417057
:1016E0000320C3E735F8020BC0F30800E3E784F8F2
:1016F00041700020BAE77047FEE7000008B5134EBE
:10170000DFF84C80DFF84CA04FF0FF354FF4005766
:101710004FF480590095002301220C21706901F0DB
:10172000CDFB0446400706D539464046FFF74CF945
:1017300009A0FEF7B9FE2007ECD549465046FFF751
:1017400043F90CA0FEF7B0FEE4E700000000002023
:1017500000100140000C01404C45443120546F679B
:10176000676C656420627920496E74657272757069
:10177000740D0A004C45443220546F67676C6564F1
:1017800020627920496E746572727570740D0A005A
:101790000D4808B5416941F00101416140690022ED
:1017A00000F00100009005210E20FFF7B9F90E208E
:1017B000FFF7A8F9002205210F20FFF7B1F9BDE8D6
:1017C00008400F20FFF79EB90010024010B500F04E
:1017D0007FF9164800F026FB154C144A0121A06140
:1017E000203A084600F052FB104A2061383A0121A5
:1017F000042000F0EBFA0D4AE060343200210D487D
:1018000000F090FB094A2062103200210A4800F0E3
:1018100089FBE06120B909A0FEF746FEFEF764FEF1
:101820000248103800F08DFA606110BDBC3A000823
:101830000000002069190008FD160008496E744C6C
:1018400065645461736B206372656174696F6E20A7
:101850006661696C6564210D0A0000002DE9F043A2
:1018600085B000252C480095019502950395816966
:1018700041F010018161816901F0100104918169D9
:1018800041F020018161816901F0200104918169A9
:1018900041F004018161816901F0040104918169D1
:1018A00041F0080181618069012200F00800DFF841
:1018B0006C805403049021464046FFF78DF80122C6
:1018C000DFF85C90170339464846FFF785F8009427
:1018D00001AA0124022682E8700069464046FEF70C
:1018E00083FF10486946CDE900400F480294FEF797
:1018F0007BFF01AA009782E8700069464846FEF720
:1019000073FF002205210620FFF70AF90620FFF7E2
:10191000F9F805B0BDE8F083001002400010014066
:10192000000C014000002110000801400C4810B5D7
:101930000A4901604FF4E1314160002181600C22CD
:10194000C160C0E904128161C161FFF7DFFD0028B9
:1019500003D0BDE81040FEF7C7BD10BD0038014000
:10196000B8000020FEE7FEE7012000F0DDF9FBE70C
:1019700010B54FF0E020006901F0BAFE012803D055
:10198000BDE8104001F072BB10BD30B58FB028210A
:101990006846FEF7D1FC14210AA8FEF7CDFC012110
:1019A0000804CDE900100024029402250491CDE939
:1019B00007504FF4E01009906846FFF7DFF908B1CF
:1019C00072B6FEE70F20CDE90A054FF48060CDE93D
:1019D0000C4002210AA80E94FFF7D4F8002801D089
:1019E00072B6FEE70FB030BD704700000148FFF748
:1019F000B2BB000088010020F0B50268194B1A4CF8
:101A00001A4D4FF08047984205D0B84203D0A0420B
:101A100001D0A84203D122F070064A6832439842AE
:101A200005D0B84203D0A04201D0A84203D122F48D
:101A30004074CA6822434C6922F08002224302604B
:101A40008A68C2620A688262984201D109690163A8
:101A5000012141610169C90703D0016921F0010138
:101A60000161F0BD002C014000040040000800406E
:101A700010B5406A0021C185C184FFF70FFC10BD7D
:101A800001680C3151E8002F22F4907241E80023E4
:101A9000002BF5D10168143151E8002F22F001022A
:101AA00041E80023002BF5D1016B012909D1016820
:101AB0000C3151E8002F22F0100241E80023002BE6
:101AC000F5D1202180F84210002101637047000009
:101AD00010B5034800F0A6F90249086010BD0000E7
:101AE000143B00082400002008B590F84210222979
:101AF00001D0022008BD82684FF480539A4201D180
:101B0000016921B1816A9A421BD04AB10AE0026898
:101B1000816A5268C2F308020A80816A891C08E05F
:101B2000026972B10268526802F07F020A70816A2B
:101B3000491C8162C18D491E0904090CC18503D06D
:101B40001BE002685268F1E70168CA6822F02002CF
:101B5000CA600168CA6822F48072CA6001684A6972
:101B600022F001024A61202180F8421000214163E5
:101B7000026B012A03D0FFF76DFD002008BD016351
:101B800001680C3151E8002F22F0100241E80023D7
:101B9000002BF5D101680A68D20602D50A684968A7
:101BA0000091818DFFF779FBE7E7000070B50446EF
:101BB00000680169E26821F4405111430161216923
:101BC000A0680843616908432168CA6841F20C6350
:101BD0009A430243CA6020684169A26921F44071B6
:101BE000114341611E492068884202D1FFF790F8F5
:101BF00001E0FFF77DF800EBC00101EB0012606827
:101C000064218000B2FBF0F3B3FBF1F36FF0180630
:101C10007343B2FBF0F5B2FBF0F605EB830532231C
:101C200003EB0515B5FBF1F5B6FBF1F605F0F00594
:101C300005EB0615B2FBF0F6B2FBF0F0B0FBF1F0ED
:101C40006FF01802504306EB800003EB0010B0FB6E
:101C5000F1F0216800F00F002844886070BD00009A
:101C6000003801402DE9F843984617460D460446D2
:101C7000089E24E0701C22D0FEF7B4FEA0EB080002
:101C8000B0421AD8CEB12068C168490717D5802D57
:101C900015D0402D13D00168C94309070FD401683E
:101CA0000025406800902046FFF7EAFE08206064A7
:101CB00084F840500120BDE8F8830320FBE720684A
:101CC000006835EA000004D00020B842D2D00020DD
:101CD000F1E70120F9E700000148FFF7E1BA000051
:101CE000B8000020FEE70907090E002804DB00F118
:101CF000E02080F80014704700F00F0000F1E020B1
:101D000080F8141D7047FEF77BFEFFF73EFEFFF7DD
:101D1000A5FDFFF73DFDFFF709FE00F029F8FFF7ED
:101D200055FD00F037F8FEE710B5EFF3058111B16E
:101D30006FF0050403E0002408B100F007FF20461F
:101D400010BD10B54FF00001EFF305826AB948B13C
:101D5000D0E902202AB1202807D3104601F04AF822
:101D600002E010B901F038F80146084610BD000045
:101D7000EFF3058010B16FF005007047044801686B
:101D800011B14FF0FF307047012101600020704712
:101D90008800002010B5EFF3058010B16FF005004A
:101DA00010BD08480168012902D04FF0FF3010BD76
:101DB000054A002182F8141D0221016000F08EFF07
:101DC000002010BD880000200BE000E0F8B51446AC
:101DD0004FF00005EFF3058212BB08B301B3A4B1C5
:101DE000D4E9023263B1502A1AD32269C2B16769B9
:101DF00000FB01F6B74213D3009501F0C3F907E0E9
:101E000072B9226962B9626952B9002201F099F986
:101E1000050005D00CB1216800E0002100F034FE7F
:101E20002846F8BD70B505464FF00004EFF3058075
:101E300050BB0DB1686800E00020C10701D0012649
:101E400000E0002600071FD46DB1D5E9021021B1D2
:101E5000502819D31EB1042002E020B114E0012063
:101E600001F062F905E00EB1042000E0012001F06C
:101E700050F9040008D00DB1296800E0002100F0FD
:101E800003FE0EB144F00104204670BDF8B51446BF
:101E900003460E464FF00005EFF3058098BB93B361
:101EA0009E423DD84CB1A0680028E06803D050287D
:101EB00036D3012002E008B132E00020012B05D02A
:101EC00010B31846A26801F004F920E040B10320E5
:101ED0000090002211460120A36801F053F904E0AC
:101EE00003220021012001F02CF9050018D086B151
:101EF00000231A46194601F0BDF9012809D02846E9
:101F000000F0D6FD00250BE0184601F0C5F80500ED
:101F100006D00CB1216800E00021284600F0B4FD95
:101F20002846F8BD2DE9FF414FEA01034FF00005B7
:101F3000EFF30581039549BB40B3802718210024A6
:101F40004AB3166806B1344696691EB13146761E0C
:101F5000382E02D21679F60703D0002004B0BDE86F
:101F6000F081566906B1B708D2F808C0BCF1000F7D
:101F70000DD0D5685C2D18D312693AB136B18DE811
:101F800006103A46214601F088FB03900DE0D66822
:101F90005EB912694AB903AACDE90012BAB2214664
:101FA00001F04EFB012800D003950398D6E700000E
:101FB0002DE9F041134C0F460546E6682068001DE8
:101FC00000F056FC681C07D137B12168BDE8F0412C
:101FD0000D48091D00F0AABC20683544B542456093
:101FE000216805D2A06BBDE8F041091D00F086BC58
:101FF000606B091D00F082FCA06A854200D2A562D8
:10200000BDE8F08138000020C00600202DE9F04135
:10201000054600F097FC2D4CA068401CA06020688D
:102020002B4F10B1606930B32BE02560A068012808
:1020300027D1002606EB860007EB800000F050FC5D
:10204000761C382EF6D3234800F04AFC2148143081
:1020500000F046FC1F48283000F042FC1D483C3090
:1020600000F03EFC1B48503000F03AFC1948606319
:102070001430A06305E02068E96AC06A884200D88D
:102080002560606A401C60626864E86A2169884271
:1020900000D9206100EB800007EB8000291D00F0D3
:1020A00045FC00F06FFC606900280CD02068E96AEC
:1020B000C06A884207D208494FF080500860BFF3D9
:1020C0004F8FBFF36F8FBDE8F08100003800002014
:1020D000100200207006002004ED00E038B500F08A
:1020E00031FC104C2068C8B90F4800F0F9FB0E48CD
:1020F000143000F0F5FB0C48E060143020610A4B0E
:102100000020F03B009003F1500210210A2001F062
:1021100039F8206010B105A100F0B6FCBDE83840E8
:1021200000F030BC74000020C4070020546D7251D0
:102130000000000030B4026C0B46002A0BD0C168CE
:102140001144C1608468A14201D30168C16030BC00
:102150001846FEF7A4B830BC70472DE9F041856BF6
:10216000174604460026026C82B1C7B1E068FEF74C
:1021700096F8E168206C091AE1602268914202D267
:10218000A168081AE060022F16D017E02068A8B9ED
:10219000A06801F025FB06460020A0600EE0606804
:1021A000FEF77DF8216C606808446060A168884291
:1021B00004D32068606001E005B16D1E6D1CA5634D
:1021C0003046BDE8F08110B5044690F8590058B18A
:1021D00001280CD002280FD0502080F31188BFF3C3
:1021E0004F8FBFF36F8FFEE7206B00F0DFFB2046C1
:1021F000BDE8104000F0DABB10BD000010484FF4FD
:102200000051420706D0C01D0D4920F00700411AB9
:10221000C1F500510B4A00230144C2E9000308390B
:10222000183A21F0070111604B600B600B1AC0E9EE
:10223000001393604FF000405360506170470000FE
:10224000A40E0020A4000020144E154CA6F29C47BA
:102250004FF08058DFF84C9012E000BF00F072FBA6
:10226000F068C568281D00F003FBA068401EA06050
:102270006068401E606000F085FB2846FFF7A3FF02
:1022800060680028EAD138680128F9D9C9F80080C7
:10229000BFF34F8FBFF36F8FF2E70000AC06002053
:1022A0003800002004ED00E0002807D00021816004
:1022B00001600B460A46C16000F0DCBF70470000B9
:1022C00070B51D46049C51B1C4F80020C4E90F014B
:1022D0000121204600F08AFF84F84C5070BD246034
:1022E000F4E700002DE9F05F8846DDE90B94154620
:1022F000834691009A460A9EA522206BFEF714F8A9
:102300006FF00301206B01EB8501084420F0070703
:10231000780707D0502080F31188BFF34F8FBFF3A9
:102320006F8FFEE70025B8F1000F0FD05FF00000BF
:10233000221818F8001082F8341018F8001011B1A3
:10234000401C1028F4D384F8435001E084F8345042
:10235000382E00D33726E662C4E91365201D00F04D
:10236000CAFA04F1180000F0C6FA2461C6F1380078
:102370006462A061656584F85850524659463846F3
:1023800000F064FA2060B9F1000F01D0C9F80040F4
:10239000BDE8F09F30B5114900E011460A6882425D
:1023A000FBD34B685C18844203D1406818444860F2
:1023B000084643681C18944209D1084C183C24680C
:1023C000A24209D052681A4442600A681268026048
:1023D000814200D0086030BD0460F9E7A40000200D
:1023E00070B5002441600B4D0061914206D8D11AAE
:1023F0008269914206D2011D286907E09A4203D200
:10240000994201D3012403E0011DE86800F076FA47
:10241000204670BD7400002010B5044600F092FA0A
:10242000A06B28B15FF0000400F0ACFA204610BDAC
:102430000124F9E730B589B03C4D6EE004980028DE
:1024400006DADDE90601059A90470498002864DB66
:10245000069C606910B1201D00F00AFA03A800F084
:10246000D7F8024604980A2857D2DFE800F005059D
:10247000052D334A05052D3394F8280040F001005E
:1024800084F828000599A069059B01442046FFF7C0
:10249000A7FF68B3216A2046884794F828004007C0
:1024A0003BD5002000900598A169002342181946E9
:1024B000204601F09FFAD8B9502080F31188BFF36D
:1024C0004F8FBFF36F8FFEE714F8280F20F0010045
:1024D000207022E094F8280040F0010084F82800E1
:1024E0000598A06128B1811813462046FFF778FFB0
:1024F00013E0502080F31188BFF34F8FBFF36F8F2D
:10250000FEE794F82800810703D4204600F04EFA35
:1025100003E020F0010084F82800002204A92868C4
:1025200000F0B8FF002889D109B030BD7400002048
:102530002DE9FC410F46054600F014FC01A800F00F
:1025400067F80446019818B101F0C2F9BDE8FC81B2
:10255000254EAFB130690068D0B30027291B3A4639
:10256000306800F0D1FA01F0B3F90028EED11F492C
:102570004FF080500860BFF34F8FBFF36F8FE5E7D8
:10258000A542EBD801F0A4F9F0682746C068C468FA
:10259000201D00F06DF994F82800410719D5A069B5
:1025A0002B4641193A462046FFF71AFFA8B10020F2
:1025B0000346014600902A46204601F01BFA60B906
:1025C000502080F31188BFF34F8FBFF36F8FFEE76A
:1025D00007E020F0010084F82800216A204688479F
:1025E000B4E70127BAE700007400002004ED00E022
:1025F0000648416B096829B1416BC968C9684968D7
:10260000816270474FF0FF31FAE700003800002088
:1026100070B5054601F07AF8064E0446B06884426B
:1026200003D200F009F8012000E0002028602046D5
:10263000B46070BD74000020F8B5194D20E0C0688A
:10264000C4680668201D00F013F9216A20468847F7
:1026500094F82800400713D5A0693044B04206D949
:1026600024616060211DE86800F048F908E000205E
:102670000346014600903246204601F0BBF938B1CE
:10268000E86801680029DAD12969C5E90310F8BDB5
:10269000502080F31188BFF34F8FBFF36F8FFEE799
:1026A0007400002008484068401C4FF0500080F340
:1026B000118804D0BFF34F8FBFF36F8FFEE7BFF3D6
:1026C0004F8FBFF36F8FFEE7AC0000200346002062
:1026D00012B1994302D070470B42FCD001207047E1
:1026E000074CE068016841B1C0680021D0F80000E3
:1026F000FFF71EFFFFF79EFEF3E701210020F7E73B
:10270000740000202DE9F041044600F01BF994F913
:10271000455004F1240609E0606A48B1304601F0F2
:102720009FF808B100F040FA6D1E6DB2002DF3DC89
:102730004FF0FF3684F8456000F024F900F002F90C
:1027400094F9445004F1100709E0206948B1384673
:1027500001F086F808B100F027FA6D1E6DB2002D69
:10276000F3DC84F84460BDE8F04100F00BB90000F0
:102770002DE9F0410546002700F0F4FA324E3068AA
:1027800008B9FFF73BFD706905424ED1C5B3083566
:1027900068070ED005F00700C0F10800054468077F
:1027A00007D0502080F31188BFF34F8FBFF36F8F96
:1027B000FEE72DB37068854237D8234818300146AC
:1027C0000C6801E020460C466168A94202D22168EB
:1027D0000029F7D131688C4227D007682168016051
:1027E00060680837411B10290FD96019420708D0CB
:1027F000502080F31188BFF34F8FBFF36F8FFEE738
:1028000013E041606560FFF7C5FD61687068401ABC
:102810007060B268904200D2B060706901430020DD
:10282000C4E90001F068401CF06001F051F878073D
:1028300007D0502080F31188BFF34F8FBFF36F8F05
:10284000FEE73846BDE8F0818C00002010B5031F7C
:102850004FF080741C601B1F21F001011960191FCB
:10286000024B0B60143940380A6010BDA5260008E1
:10287000D0E9013201699A60D0E901235A604A68BF
:10288000824201D182684A60002202610868401ECB
:102890000860086870470000044908680A68806991
:1028A000D26A0968C2F138028A6170473800002094
:1028B000034B036003F15C000860802010607047E8
:1028C000EC070020044B036003F15C0008604FF448
:1028D0008070106070470000480A002000F0A0BA25
:1028E00000F108014FF0FF32C0E90112C16001613F
:1028F00000210160704700210161704730B50B680D
:102900005A1C02D000F1080202E0026904E02246EB
:10291000546825689D42FAD953684B6099608A6073
:10292000516008610168491C016030BD42684A601D
:1029300093688B6093685960916008610168491CD5
:1029400001607047502080F31188BFF34F8FBFF3B1
:102950006F8F0A494868401C486001280CD108481C
:10296000006810F0FF0F07D0502080F31188BFF3EC
:102970004F8FBFF36F8FFEE770470000AC00002061
:1029800004ED00E00849486828B1401E486001D1C4
:1029900080F311887047502080F31188BFF34F8F68
:1029A000BFF36F8FFEE70000AC00002070B5002879
:1029B0002AD0164DA0F1080460686969084207D161
:1029C000502080F31188BFF34F8FBFF36F8FFEE766
:1029D00022683AB1502080F31188BFF34F8FBFF3C4
:1029E0006F8FFEE78843606000F0BCF9606869683B
:1029F000084468602046FFF7CDFC2869401C286128
:102A0000BDE8704000F064BF70BD00008C00002085
:102A10004FF0E02000210161816105494FF47A7295
:102A20000968B1FBF2F1491E41610721016170475C
:102A30003400002010B5FDF7EFFB114910280ED32C
:102A400000F1E02090F8F0030A78904207D250207D
:102A500080F31188BFF34F8FBFF36F8FFEE70948F4
:102A60000068896800F4E060884207D9502080F34C
:102A70001188BFF34F8FBFF36F8FFEE710BD0000CB
:102A8000AC0000200CED00E010B5084B002200BFA8
:102A900053F832401CB1521C082AF9D310BD43F838
:102AA000321003EBC201486010BD0000D0010020CD
:102AB00010B504000AD000F013F894F8460000287E
:102AC0000CD12046BDE81040FFF770BF502080F3C6
:102AD0001188BFF34F8FBFF36F8FFEE710BD00006B
:102AE000084A002102EBC1035B68834206D1002043
:102AF00042F8310002EBC10148607047491C0829C7
:102B0000F0D37047D001002070B515460E4604463C
:102B1000FFF718FF94F944100020491C01D184F8F4
:102B2000440094F94510491C01D184F84500FFF791
:102B300029FFA06B28B92A46314604F1240000F091
:102B400051F82046BDE87040FFF7DCBD10B502002B
:102B500014D00F48006B38B1502080F31188BFF3B8
:102B60004F8FBFF36F8FFEE700F0FCF80021104697
:102B7000FFF71EFA00F0ACFE002807D105494FF020
:102B800080500860BFF34F8FBFF36F8F10BD000000
:102B90003800002004ED00E002490A6A0260C968BA
:102BA000416070473800002001490120C86170472A
:102BB0003800002010B50C4650B109490968183199
:102BC000FFF79CFE2046BDE810400121FFF7F0B959
:102BD000502080F31188BFF34F8FBFF36F8FFEE754
:102BE0003800002070B514460D4668B10A490968DE
:102BF0001831FFF79BFE0CB14FF0FF3521462846F8
:102C0000BDE87040FFF7D4B9502080F31188BFF3BE
:102C10004F8FBFF36F8FFEE73800002010B51446CA
:102C2000030011D01048026BB2B1026841F00041BC
:102C30009161016818461831FFF778FE2046BDE81B
:102C400010400121FFF7B4B9502080F31188BFF381
:102C50004F8FBFF36F8FFEE7502080F31188BFF3D3
:102C60004F8FBFF36F8FFEE73800002070B5194D0E
:102C70002A6BF2B141F000410160C4680CB3FFF768
:102C8000F7FD201DFFF7F4FDE06A2969884200D9AD
:102C90002861114900EB800001EB8000211DFFF746
:102CA00045FEE06A2968C96A884201D90120E861C5
:102CB00070BD502080F31188BFF34F8FBFF36F8F2B
:102CC000FEE7502080F31188BFF34F8FBFF36F8F63
:102CD000FEE70000380000201002002030B587B069
:102CE0000024039405AA04A903A80494FFF7E0FDB7
:102CF000DDE903010094CDE90110002315A1174877
:102D0000059A00F0CAFC164D0028E8621FD000F0BA
:102D100041FE012809D0401C19D1502080F31188B0
:102D2000BFF34F8FBFF36F8FFEE7502080F3118802
:102D3000BFF34F8FBFF36F8F4FF0FF30A8620120BA
:102D40006861EC6007B0BDE8304000F03BB907B007
:102D500030BD000049444C450000000049220008F5
:102D6000380000200248016B491C016370470000D5
:102D700038000020164810B5016B11B10121C16166
:102D800010BD0021C1610169124A01E0B9B1491EBB
:102D900001EB810352F82330002BF7D001EB8103C4
:102DA00002EB830202F1080453685B685360A3429C
:102DB00001D15B685360DA680260016110BD502088
:102DC00080F31188BFF34F8FBFF36F8FFEE70000D2
:102DD000380000201002002070B52020FFF7C8FC4A
:102DE000040005D00025201D2560FFF779FD25771B
:102DF000204670BD38B558B120210446002000910E
:102E00002060201DFFF76CFD01202077204638BD93
:102E1000502080F31188BFF34F8FBFF36F8FFEE711
:102E20002DE9F0410027884604000AD05FEA1860C7
:102E30000FD0502080F31188BFF34F8FBFF36F8FF7
:102E4000FEE7502080F31188BFF34F8FBFF36F8FE1
:102E5000FEE7261D04F10C05FFF784FF2168F068EA
:102E600041EA0801216017E0D0E9001601F07F4235
:102E70005301236821F07F4102D40B4203D10AE0C1
:102E800031EA030307D1D20100D50F43216841F095
:102E90000071FFF7EBFE3046A842E5D12068B84349
:102EA000206000F015FD2068BDE8F08113460A4659
:102EB0000146014800F0D2BDDD2800082DE9F047A9
:102EC0009A46DDF8209090460D4604004FF000072A
:102ED00009D0280E0FD0502080F31188BFF34F8FF8
:102EE000BFF36F8FFEE7502080F31188BFF34F8F41
:102EF000BFF36F8FFEE71DB100F0FAFB40B112E0A7
:102F0000502080F31188BFF34F8FBFF36F8FFEE720
:102F1000B9F1000F07D0502080F31188BFF34F8F15
:102F2000BFF36F8FFEE7FFF71DFF26685246294665
:102F30003046FFF7CBFB30B1B8F1000F1AD0206854
:102F4000A843206016E0B9F1000F13D0B8F1000FCC
:102F500001D04FF08077BAF1000F01D047F08067C1
:102F600045EA07014A46201DFFF758FE00F0B0FC75
:102F700018B10AE000F0ACFC1FE011494FF080509E
:102F80000860BFF34F8FBFF36F8FFFF785FC0646D6
:102F9000800110D4FFF7D6FC2668524629463046F9
:102FA000FFF794FB28B1B8F1000F02D02068A843C6
:102FB0002060FFF7E7FC26F07F463046BDE8F0874B
:102FC00004ED00E01CB5264908780190FF20087048
:102FD00008788DF800009DF800009DF8002000F0B2
:102FE000F000904207D0502080F31188BFF34F8F3C
:102FF000BFF36F8FFEE79DF800001A4C00F0500001
:1030000020700720A06005E09DF8002052008DF898
:103010000020401E9DF800201206F5D4A060032871
:1030200007D0502080F31188BFF34F8FBFF36F8F0D
:10303000FEE74FF44070A060019808700A480168EC
:1030400041F470010160016841F070410160FFF7D7
:10305000DFFC00206060FDF7A9F800201CBD000027
:1030600000E400E0AC00002020ED00E010B55020AE
:1030700080F31188BFF34F8FBFF36F8F00F04CFBCD
:1030800018B104494FF080500860002080F3118887
:1030900010BD000004ED00E010B50C4648B18442BC
:1030A0000FD9502080F31188BFF34F8FBFF36F8F7C
:1030B000FEE7502080F31188BFF34F8FBFF36F8F6F
:1030C000FEE70222002100F03CF8002800D08463D3
:1030D00010BD38B50C4648B184420FD9502080F35A
:1030E0001188BFF34F8FBFF36F8FFEE7502080F33F
:1030F0001188BFF34F8FBFF36F8FFEE70221134696
:1031000000220091114600F03DF8002800D08463B1
:1031100038BD10B502460021012000F012F8044627
:10312000FFF7C2F8204610BD38B50B4600220090CC
:103130001146012000F026F80446FFF7B5F82046B6
:1031400038BDF8B517460E46050013D005FB06F04E
:103150005030FFF70DFB04000AD0002084F8460031
:1031600004F150023B46314628460094FFF7A8F888
:103170002046F8BD502080F31188BFF34F8FBFF376
:103180006F8FFEE738B5049D18B153B1CAB181B154
:1031900020E0502080F31188BFF34F8FBFF36F8F73
:1031A000FEE7502080F31188BFF34F8FBFF36F8F7E
:1031B000FEE7502080F31188BFF34F8FBFF36F8F6E
:1031C000FEE739B1502080F31188BFF34F8FBFF372
:1031D0006F8FFEE750241C46012384F846302B46AF
:1031E0000094FFF76DF8204638BD000070B50D461D
:1031F000040025D0FFF7A6FBD4E90F20216802FBCD
:103200000011A1600021A163216861600A46D4E930
:103210000F01401E00FB0121E16021464FF0FF300D
:1032200001F8440F487004F110008DB1FFF758FB0E
:1032300004F12400FFF754FBFFF7A4FB012070BD4D
:10324000502080F31188BFF34F8FBFF36F8FFEE7DD
:1032500021690029F0D000F003FB0028ECD00449DC
:103260004FF080500860BFF34F8FBFF36F8FE3E7DD
:1032700004ED00E02DE9FF4782B01D468A464FF07D
:103280000008040003D0BAF1000F08D011E050206C
:1032900080F31188BFF34F8FBFF36F8FFEE7206C71
:1032A00038B1502080F31188BFF34F8FBFF36F8F79
:1032B000FEE7022D0AD1E06B012807D0502080F3F1
:1032C0001188BFF34F8FBFF36F8FFEE700F010FA46
:1032D0003F4F4FF000094FF0805648B9049838B17D
:1032E000502080F31188BFF34F8FBFF36F8FFEE73D
:1032F000FFF728FBA06BE16B884207D3022D05D0B6
:103300000498D0B1B8F1000F1AD01EE02A465146F9
:103310002046FEF722FF616A19B104F1240000F093
:103320009FFA20B13E60BFF34F8FBFF36F8FFFF75F
:1033300029FB012006B0BDE8F087FFF723FB22E060
:103340006846FFF729FC4FF00108FFF71BFBFFF76A
:1033500009FDFFF7F7FA94F94400401C01D184F805
:10336000449094F94500401C01D184F84590FFF742
:1033700009FB04A9684600F029F930B12046FFF79F
:10338000C1F900F0A5FA0020D4E7FFF7DBFAA06B43
:10339000E16B884213D1FFF7F5FA04F110000499AC
:1033A000FFF708FC2046FFF7ADF900F091FA00287E
:1033B0009ED13E60BFF34F8FBFF36F8F98E7FFF74B
:1033C000E1FA2046FFF79EF900F082FA90E700004C
:1033D00004ED00E02DE9F0471F46904689460400C1
:1033E00003D0B9F1000F08D011E0502080F311880C
:1033F000BFF34F8FBFF36F8FFEE7206C38B15020C3
:1034000080F31188BFF34F8FBFF36F8FFEE7022F5A
:103410000AD1E06B012807D0502080F31188BFF358
:103420004F8FBFF36F8FFEE7FFF704FB5020EFF3E2
:10343000118680F31188BFF34F8FBFF36F8FA06B9E
:10344000E16B884206D3022F04D0002086F3118856
:10345000BDE8F08794F94550A06B3A4649462046AE
:10346000FEF77BFE681C04D06D1C84F845500120DB
:10347000ECE7606A0028FAD004F1240000F0F0F9CB
:103480000028F4D0B8F1000FF1D00121C8F80010E5
:10349000EDE700002DE9F747002683B08A460400D7
:1034A00003D0BAF1000F08D011E0502080F311884A
:1034B000BFF34F8FBFF36F8FFEE7206C38B1502002
:1034C00080F31188BFF34F8FBFF36F8FFEE700F0DB
:1034D0000FF9DFF8F4804FF000094FF0805748B93A
:1034E000059838B1502080F31188BFF34F8FBFF398
:1034F0006F8FFEE7FFF726FAA56BC5B15146204650
:10350000FEF718FE6D1EA563206950B104F110008E
:1035100000F0A6F928B1C8F80070BFF34F8FBFF3D1
:103520006F8FFFF72FFA012006B0BDE8F0870598EE
:1035300008B11EB106E0FFF725FA27E06846FFF75D
:103540002BFB0126FFF71EFAFFF70CFCFFF7FAF939
:1035500094F94400401C01D184F8449094F945004A
:10356000401C01D184F84590FFF70CFA05A9684684
:1035700000F02CF8002820460AD0FFF7C3F800F02E
:10358000A7F92046FEF748FF0028B3D00020CBE77C
:10359000FEF742FF90B104F124000599FFF70AFB02
:1035A0002046FFF7AFF800F093F90028A2D1C8F841
:1035B0000070BFF34F8FBFF36F8F9BE72046FFF77D
:1035C000A1F800F085F995E704ED00E02DE9F04160
:1035D0000C46050011D0C4B1FFF7B4F9174BDA68F7
:1035E0006E682068911B471C17D02F681B6A9F428A
:1035F00019D0964217D8012410E0502080F311888A
:10360000BFF34F8FBFF36F8FFEE7502080F3118819
:10361000BFF34F8FBFF36F8FFEE70024FFF7B2F9C0
:103620002046BDE8F081884205D9401A206028462E
:10363000FFF7B2FAF1E700202060DCE73800002055
:103640002DE9FF5F8346DDE90E87994616468A46D7
:103650009000FFF78DF805001CD05C20FFF788F87C
:10366000040014D00020256384F85900CDE90240FD
:10367000CDE900874B46324651465846FEF732FEAA
:103680002046FEF7C3FC012004B0BDE8F09F2846A9
:10369000FFF78CF94FF0FF30F6E7F0B585B0DDE9C4
:1036A0000B640A9DA6B1DCB15C2700972663022655
:1036B00084F85960002604AFCDE90246CDE90057F1
:1036C000FEF710FE2046FEF7A1FC049805B0F0BD01
:1036D000502080F31188BFF34F8FBFF36F8FFEE749
:1036E000502080F31188BFF34F8FBFF36F8FFEE739
:1036F0000548416919B1006B18B1002070470120DD
:103700007047022070470000380000200148C06860
:1037100070470000380000202DE9F0412E4C0027B2
:10372000206B28B1A069401CA0613846BDE8F0813B
:10373000E668761CE66013D1606B006838B15020F3
:1037400080F31188BFF34F8FBFF36F8FFEE7606B7D
:10375000A16B6163A063206A401C2062FEF748FFF2
:10376000A06ADFF87880864209D3606B0068A0B158
:10377000606BC068C5686868864211D2A062206824
:10378000C06A00EB800158F82100012800D9012708
:10379000E0690028C9D00127C7E74FF0FF30EDE707
:1037A000281DFFF765F8A86A18B105F11800FFF7A2
:1037B0005FF8E86A2169884200D9206100EB800146
:1037C00008EB8100291DFFF7B1F8E86A2168C96A92
:1037D0008842CAD30127C8E7380000201002002021
:1037E00070B504004FF0000133D01B4D28688442AF
:1037F00007D0502080F31188BFF34F8FBFF36F8F36
:10380000FEE7206D38B1401E2065E36CE26A9A4203
:103810001FD040B11DE0502080F31188BFF34F8FBF
:10382000BFF36F8FFEE7201DFFF722F8E06CE06228
:10383000C0F13800A061E06A2969884200D9286196
:10384000064900EB800001EB8000211DFFF76EF8B8
:103850000121084670BD0000380000201002002041
:1038600070B5C068C46854B104F118000646FEF78C
:10387000FFFF144D286B50B13146134815E050201E
:1038800080F31188BFF34F8FBFF36F8FFEE7201DCA
:10389000FEF7EEFFE06A2969884200D928610B49EA
:1038A00000EB800001EB8000211DFFF73FF8E06A8C
:1038B0002968C96A884202D90120E86170BD0020E8
:1038C00070BD000038000020980600201002002083
:1038D0002DE9F0472C4D00242746286B38B1FFF71F
:1038E00031F8286B401E2863286B40B146E0502019
:1038F00080F31188BFF34F8FBFF36F8FFEE7A96886
:10390000224E0120D1B3A6F5916980463068E0B11E
:10391000F068C46804F11800FEF7AAFF201DFEF746
:10392000A7FFE06A2969884200D9286100EB80017D
:1039300009EB8100211DFEF7F9FFE06A2968C96AD9
:103940008842E3D3C5F81C80E0E70CB1FEF750FED7
:10395000AC694CB14FEA0806FFF7DEFE00B1EE613C
:10396000641EF9D10020A861E86938B1084901272F
:1039700038070860BFF34F8FBFF36F8FFFF702F870
:103980003846BDE8F0870000380000209806002087
:1039900004ED00E010B586B0FEF7A0FB114C2068E6
:1039A000B8B100200390049005AA04A903A8FEF76B
:1039B00089FFDDE9032102208DE8070000230AA129
:1039C0000B48059AFFF769FE606010B106B0012050
:1039D00010BD502080F31188BFF34F8FBFF36F8F5E
:1039E000FEE7000074000020546D722053766300DF
:1039F000E12600082DE9FF411E46134602000A9DFC
:103A00004FF0000016D0144C2768002F0FD0CDE9DE
:103A100000130292062917DAFFF76AFE02284FF018
:103A200000030FD0002269462068FFF723FC04B092
:103A3000BDE8F081502080F31188BFF34F8FBFF3B2
:103A40006F8FFEE72A46EEE7002332466946384686
:103A5000FFF7C0FCEBE70000740000201FB51C4618
:103A60006FF00103CDE90030CDE9021204480023D4
:103A7000224669460068FFF7ADFC04B010BD0000A7
:103A800074000020503B000800000000000000000F
:103A9000000000000000000000000000743B00086F
:103AA0000000000000000000000000007C3B000857
:103AB000000000000000000000000000883B00083B
:103AC0000000000000000000000000005C3B000857
:103AD00000000000000000000000000000000000E6
:103AE00000010000180000000000000000000000BD
:103AF000683B00080000000000000000000000001B
:103B0000000000000002000018000000000000009B
:103B100000000000983B00080000000000000000CA
:103B200000000000010202030405060708090A0B51
:103B30000C0D0E0F1010000000000000000001022C
:103B40000304060708090000000001020304000046
:103B50004B6579517565756500000000496E744CC0
:103B600065645461736B000064656661756C7454C0
:103B700061736B004C454453656D00004C454445F2
:103B800076656E74000000004D656D506F6F6C4D72
:103B90007574657800000000556172744D75746528
:103BA00078000000C43B000800000020B8000000BE
:103BB000280100087C3C0008B800002050340000B8
:103BC00044010008000000000000000000000000A8
:103BD00000000000000000000000000000000000E5
:103BE00000000000000000000000000001000000D4
:103BF000100000000000000000127A000000000029
:103C000000000000000000000000000000000000B4
:103C100000000000000000000000000000000000A4
:103C20000000000000000000000000000000000094
:103C30000000000000000000000000000000000084
:103C40000000000000000000000000000000000074
:103C50000000000000000000000000000000000064
:103C60000000000000000000000000000000000054
:0C3C700000000000AAAAAAAA00000000A0
:04000005080000ED02
:00000001FF
